:040000006F103071DC
:100004000000000000000000080200000C020000D4
:1000140000000000BC1E0000000000000000000002
:10002400BE1E0000C01E0000000000000000000012
:10003400C21E000000000000C41E000000000000FA
:10004400C61E0000C81E0000CA1E000000000000FA
:10005400CC1E0000CE1E0000D01E0000D21E0000E8
:10006400C0060000D61E0000D81E0000DA1E0000E4
:10007400DC1E0000DE1E0000E01E0000E21E000088
:10008400E41E0000E61E0000E81E0000EA1E000058
:10009400EC1E0000EE1E0000F01E0000F21E000028
:1000A400F41E0000F61E0000F81E0000FA1E0000F8
:1000B400FC1E0000FE1E0000001F0000021F0000C6
:1000C400041F0000061F0000081F00000A1F000094
:1000D4000C1F00000E1F0000101F00000000000095
:1000E400000000000000000000000000000000000C
:0C00F40000000000000000000000000000
:10010000397101436EC619A0397141536AC866CA74
:1001100062CC5ECE19A0397101535AD056D252D456
:100120004ED64AD826DA22DC06DE330161408282CE
:1001300041114AC026C222C406C68282B24D410184
:10014000024D924C224CB24B4101024B924A224A40
:10015000B2494101024992442244B24041018280A5
:100160003D432A876373C3029377F700BDEFADE584
:10017000937606FF3D8ABA960CC34CC30CC74CC796
:100180004107E36BD7FE11E28280B306C3408A06C3
:100190009702000096966780A6002307B700A30683
:1001A000B7002306B700A305B7002305B700A304D3
:1001B000B7002304B700A303B7002303B700A302CB
:1001C000B7002302B700A301B7002301B700A300C3
:1001D000B7002300B700828093F5F50F9396850052
:1001E000D58D93960501D58D61B79396270097021B
:1001F000000096968682E78086FA9680C1171D8F4A
:100200003E96E374C3F8A5B77300203001A01377BE
:10021000050F9307000B630BF7049307000C6302B1
:10022000F7069306000A8147631CD7003717024080
:100230001C4F93E747001CCFB717014093870780F7
:100240009376F500218935ED9043139526003D47BF
:100250003317A7001347F7FF718F05466388C5045E
:10026000634AB602C546A1C598C3828037170240CB
:100270001C4F93E787001CCFB7170140938707C037
:10028000C1B7371702401C4F93E707011CCFB717C0
:1002900001407DB70948638005030D48E39605FDDD
:1002A000B316D600D4CB9306800211A091463395A5
:1002B000A600498F55BFB316D60094CB9306800491
:1002C000FDB7E11693F6F60FD043139526003D4790
:1002D0003317A7001347F7FF718F05466388C502E0
:1002E0006346B600C54685C5D8C382800948638485
:1002F00005030D48E39A05FF93058002A106339597
:10030000A500B316D600498FD4CBF9BF91463395DB
:10031000A600498FD1BF93058004A1063395A5009F
:10032000B316D600498F94CBC1B79307050693F750
:10033000F70F1307F0036366F700EFF27FDFC13DAD
:1003400011BD82809377F50005473317F7009306B8
:10035000000B9377050F6383D7029306000C638429
:10036000D7029306000A01456397D700B7170140EB
:1003700003A58780798D3335A0008280B7170140AF
:1003800003A587C0C5BFB71701408847E5B71377F6
:10039000F5008547B397E70091E1C2071375050F94
:1003A0001307000B630FE5001307000C6300E50261
:1003B0001307000A631FE500371701402328F78061
:1003C0008280371701402328F7C082803717014009
:1003D0001CCB8280EFF2DFD503C52187A5379DBBFB
:1003E000EFF21FD503C521878D458137A5B3EFF205
:1003F0003FD4138421870345040081453D370345DD
:10040000040081456937B9B3EFF29FD203C5118764
:100410008D45213F81B3EFF2BFD11384118703458E
:100420000400814519370345040081458D371DB30C
:10043000EFF27FCEAA842144B7090020939784016C
:10044000E18763D70704693FC13713890901032591
:1004500009007D148604EF10D07E753F0325090046
:100460001374F40F93F4F40FEF10B07D61F88D3F27
:10047000613F03250900EF10D07CA93F2A84613F2A
:1004800003250900EF10F07B9D371335140075B973
:10049000B93F5DBFEFF23FC82A8AA14491370144BA
:1004A000B709002013890901032509000604137404
:1004B000F40FEF101079893F03250900EF107078D1
:1004C000113F19C113641400FD1493F4F40FA13704
:1004D000F1F863000A022937053F03250900EF10F0
:1004E0005076153F03250900EF10B07509372285B6
:1004F000A9B9F53DD5B7EFF2BFC337040020130407
:100500000401F5350840EF10D073FD3D0840EF10B1
:100510005073F9350840EF10D0722DB9EFF25FC17A
:1005200041112EC62A84E135B707002003A5070133
:10053000EF103071CD35B245131514001375F50F5A
:1005400081C505051375F50FE535410121B1EFF2C0
:100550003FBE2E848145B284D1370545054999C0F7
:1005600063042501493FFDB605040345F4FFC93581
:10057000E31725FFFD14E5B7EFF29FBBAE84854579
:1005800032847D59613F7D1463152401AD370545E3
:10059000D1B6133514008504F53DA38FA4FEE5B74D
:1005A000EFF27FB783A7C180411101448583636067
:1005B000F508056585451105B714014002C202C45E
:1005C00002C6EF10104C93070002E14905494C00A8
:1005D000138504803EC24EC64AC4EF1050339307C1
:1005E00000084C00138504803EC24EC64AC4EF107A
:1005F00010329307800363F4870013048003F177BC
:10060000938747305D8C4204B73701404180239087
:10061000870003D74700136727002392E70003D71B
:100620000700136707042390E700410139BE210446
:100630008583B5BF8147B736014063CAB7003737F6
:1006400001408357870093F70708E5FF828003D7AF
:100650008600098B6DDF3307F50003470700850728
:100660002396E600D9BF2A8793561500854763F77E
:10067000B600014599E711C218C282808607860537
:10068000FDB76364B7000D8F3E9585838581DDB727
:1006900081476393C70082803387F5008346070054
:1006A0003307F50085072300D700E5B781473307F7
:1006B000F5000307070019E33E8582808507C5BF63
:1006C0005D713ED4B70702403AD6984386C696C4B9
:1006D000420741832317E1000357E1009AC29EC0FD
:1006E0002ADE2EDC32DA36D842D246D072CE76CC32
:1006F0007ACA7EC81377072009CF13070020D8C312
:10070000985B8545799B98DB03C5E186493123A831
:100710000182B640A642164386437255E2555256B0
:10072000C2563257A25712588258724EE24E524F5A
:10073000C24F616173002030371702405C4B93E772
:1007400017005CCBB70702408CDFD0DF0D67D4DB2E
:100750001307270998DBB706000137E700E02320DD
:10076000D710985B1367170098DB8280EFF25F9CCD
:100770004111A307A100938701839C43EDFF1384DC
:10078000F18603450400814519319384E18603C550
:1007900004008145ED3E1305F1008545613D03C52B
:1007A00004008545ED36034504008545CD364101FD
:1007B0006FF05F9AEFF23F96AA89AE8413890183A6
:1007C00083270900E5FF7D4703C5E1861384E186A1
:1007D0008145635B970283C7D1869DE74D3E1387B2
:1007E00041801043B7070240C4DBD0DF945B93E63F
:1007F000160094DB85472320F9009387818094437A
:1008000090C314C36FF07F945936A6854E851D356D
:10081000034504008545A53EF5B7EFF2DF8F368A24
:1008200033330001A3866186AD46411163E0A61211
:100830000D6E93161500130ECEF2369E035E0E005B
:1008400023A6C18523AEC1850D63130343F13693FF
:100850008356030023A2D18423ACD1840D631303F8
:1008600043F42A938346030023A8D18423A0D1868E
:100870000D63130303F52A938346030023AAD1844F
:1008800023A2D186131325000965130545582A9321
:10089000832603008286130500060D642388A18643
:1008A0001304C4FB060EBE8923A4C1853285AE8A1B
:1008B00081453A8BC28446C632892387C186B534C6
:1008C0004A858545E93481455A85853481455A856F
:1008D0007D3C13054006EF10303A85455A85453C6E
:1008E0001305800CEF105039B24626868145568597
:1008F000453981455285A3874187053C1389C186C7
:1009000081454E8523003901EFF03FA203450900E0
:1009100085450549AD3C0545913D1305800CEF101B
:10092000B0354545A13513054006EF10F03419C028
:100930006313090881EC03A64180B73501403705F0
:1009400002408146B10513050503FD3341016FF0F7
:10095000CFFF130580060D642388A18613040401CC
:1009600091B7130500060D642388A18613040404BF
:1009700015BF130500060D642388A18613044436B1
:1009800015B7130580060D642388A186130404316E
:1009900011BF130580060D642388A1861304C4F5D6
:1009A00011B7130500060D642388A1861304C4F84B
:1009B000D5BD0144C5BD0349040093091400630B70
:1009C000090003451400CA9955339305F9FF13052F
:1009D0002400CD334E84A1BFEFF28FF583A70185AC
:1009E000011136C63E95131705014183218303A4E7
:1009F00041852A9693178500D98F7D16231CF10017
:100A0000931786004206418221825D8E1305A00263
:100A1000231DC1002E94993B91452808613BB246A5
:100A20001317040141832183931784003694D98FCF
:100A30007D14231CF100931784004204418021801F
:100A40005D8C1305B002231D81000D3391452808EC
:100A500095331305C002193B05616FF0AFEFEFF25C
:100A60008FEB1314850083A6418403A6C1842181E2
:100A7000418D13140501814501454180B13F014974
:100A8000938941849384C184054B83A709006344FF
:100A9000F9006FF08FEB63582B01014A9C406341D2
:100AA000FA020509DDB7944003A641808147E3D6E9
:100AB000D7FE139717003297231087008507C5BF0D
:100AC00003A541808945050AF531C9BF41CD634B76
:100AD000060863C906086357E0086355F008EFF29B
:100AE000AFE2931A8800939988001358880093D82E
:100AF00088003E8933E80A01B687B3E81901BA8451
:100B0000931A0801939908012A842E8A3285CA868D
:100B10003A86BE8593DA0A0193D90901753D8604A8
:100B2000014B03A54180A2860148B30895002A879E
:100B30008147858391E703C806009307000885066F
:100B40003376F8000907D68511E2CE85231FB7FE5C
:100B5000E391E8FEA685050BB1395294E31369FDD4
:100B60006FF00FDE8280EFF2AFD9131A8700218376
:100B70003367EA0013948600131A0701A18209471C
:100B80004111C18E6361F72A139406017D57AA892A
:100B90002E8B32894180135A0A016314E50083A920
:100BA000C1837D576314EB0003AB01843EC67D55C2
:100BB00063CA090A4A85EFF07FAFB2478946AA8423
:100BC00003A7C1846391D71AB146B307D502CE9764
:100BD0006356F700B3043741B3C4D4027D5563C3F1
:100BE000040831464E85C146DA85B38AC40256866A
:100BF000E5331307000C3387E40203A541808147E6
:100C00006315F70693090003138E1A00060E0D6A8A
:100C100013961A00B3893403130C2E00AA80814F57
:100C2000854C614D130A4A3D954B994DB39EFC018D
:100C300013FFFE0F13181F001378F80F93521F00B5
:100C40008145B387A503869763989502850FA147D1
:100C5000CE90E39DFFFC93070018B385F502EFF0FB
:100C60007FB5014541016FF06FCD93961700AA96AD
:100C700023904601850769B73307B900834607000B
:100C800085438116B3867603D29603C30600B37AF2
:100C90006F00638E0A003387C701231087003387F4
:100CA000C700231087002391870023908700638E5D
:100CB000730503C716009348F3FF638F0A04134BB1
:100CC000F7FF337BDB0163090B04337B18016305FA
:100CD0000B04337BE80063010B04338B8701231083
:100CE0008B0033F36200630E03041343F7FF337387
:100CF00053006308030433F31E01630403043373D6
:100D0000EF006300030423918700850391078506A4
:100D1000E39DB3F7850535B733FB1E01E3030BFCF9
:100D2000337BEF00E30F0BFA337B6800E30B0BFA26
:100D3000134BF7FF337B0B01E3050BFA338BC70132
:100D400079BFB3F81201E38208FCB3F8E200E38E46
:100D500008FAE38C0AFA1347F7FF3377D70155D720
:100D6000239287005DB78546639ED7048D66A147B1
:100D7000938606073386F4024E966356C700B30483
:100D80003741B3C4F402939E170083A84180014504
:100D9000938B4180B38AF402FD17139F1A006348B6
:100DA00095024E85A1465686DA853D3103A50B0096
:100DB00093954A00D699EFF0FF9F23AE318323A08D
:100DC000618545B58D6699479386463D65B733077E
:100DD000A900034607004688214301163306F602A0
:100DE00005478145330EB600369E034E0E00A28F96
:100DF000337EC70163130E00D28F139E1500429EEF
:100E00002310FE018505E3CFF5FCB305D8010607E5
:100E1000239F45FF7D131377F70F7A98E31303FCA5
:100E20000505F698ADBF7D5535BDEFF26FAD5D712F
:100E300042C66304053AB68BFD562E89328B639405
:100E4000D50003A9C183FD566314DB0003AB018405
:100E50003ECA3AC87D5663490904AA853146C8008E
:100E6000EFF01F834247D247131A870093998700F8
:100E70002183A1833367EA00B3E7F900131A07015E
:100E800093990701135A0A0193D9090183850B002D
:100E900099C583A7C1849384C184634BF90023AEB1
:100EA000218323A061850146328561616FF00FA91E
:100EB0008347C10463C2F50C0347D104634EB70AEC
:100EC0009D8DA6478E052146BE956818EFF04FFC14
:100ED000830A2104834DF1030303110403A6418413
:100EE000DA9AB387BA014A93834CE1036357F60059
:100EF000B30D5641D68E014409A8E3DD0AFE330442
:100F0000504133049403BE8D814E9440B305930148
:100F100063D4B600B38C66408355C103164C324788
:100F20002E9C63070712BE8C6353F600B28C834D70
:100F300001043306B90163D4C600B38D2641B386DC
:100F40005C416E86D6854A85EFF01FA993941D00FB
:100F50008148014801438346F1036356D300338639
:100F60006A00634D9601030421045A943694634049
:100F7000940D834701043E99850B09BF03A5418069
:100F80008146AA850306110463D4C60063C4B60172
:100F90008146A9A08905239F35FF8506E5B763191A
:100FA0000800135634406296834806002104214805
:100FB000030611043696635CB601139688016186B8
:100FC000528E634306004E8E2390C50189057D181D
:100FD00086081378F80F93F8F80F85060346E103A7
:100FE000E3CFC6FA338EA54093561E40034E01044C
:100FF0000146330EDE40635AC60183061104834E58
:10100000E103B296F69663CDB601A68546CC42CAF8
:101010001AC8EFF02FFA4243E2485248050325BFB1
:1010200093161600AE96239036010506E9B703A580
:101030004180814663C7B601A685EFF0AFF705048E
:101040003DB7139616002A96231036018506DDB7A4
:10105000938A418063163A0D03A60A00814763CE46
:1010600097010148014F81478144A14FA142E352BA
:10107000BFF1014EB303DF0191A893961700B2961A
:10108000239046018507E1BF9DE093573440937458
:101090007400E29783C70700B3849F4093F4F40F72
:1010A000B3869240B397D700269493F7F70F63580F
:1010B0009E0193968701E18663D006020508FD1420
:1010C000860793F4F40F93F7F70F050E8346E103B9
:1010D000E34CDEFA050F61BFE30308FE33056E0043
:1010E0009E8542863305054185467ED63ED47AD21A
:1010F00076D01ACE72CC1ECA42C8EFF0FF8D42489D
:1011000003A50A0093151800EFF0CFEA0148A142A9
:10111000B25FA257125F825E7243624ED24345B7FE
:101120001A85EE866686F685EFF01F8B03AF0A0000
:101130000148814781442143214E634CB80903A5EE
:101140000A00E308E5E3B305AF40EFF0AFE615B5FD
:10115000A1E89357344093747400E29703A50A0002
:1011600083C70700B304934093F4F40FB3069E4083
:10117000B397D700B305AF40269493F7F70F63D129
:10118000BE021ACE3ECC42CA32C8EFF0AFE203AF85
:101190000A007243E24752484246214E930EE0064F
:1011A000635C960193968701E186D28563C306004E
:1011B000CE852310BF00090FFD14860793F4F40FAA
:1011C00093F7F70F05068346E103E343D6F80508D6
:1011D000ADB70146930EE006FDB77D56F1B1EFE2E3
:1011E0003FF593178500218141115D8D2E842316D3
:1011F000A1006C00094613052006EFF04FB5154518
:10120000EF1080276C000D4613052006EFF0CFB6D7
:101210008347C1000347D1000145A207D98F23109E
:10122000F40041016FE01FF3EFE29FF09317850098
:10123000218141115D8D2316A1006C000946130523
:101240002006EFF0CFB0014541016FE0BFF0EFE2C3
:101250003FEE03A7818289470111631BF7000965EF
:101260001305D519D137056513058538EF10C02052
:1012700039659305E1001305854B95372A8441E1D3
:101280008357E100139757013DCF3D65130555C0C6
:10129000613F1545EF10401E25460C08130520063A
:1012A000EFF08FAD834701010347110183464101F0
:1012B000A207D98F2390F18203576101A2069317E9
:1012C00087002183D98F1397070183473101418319
:1012D000DD8E93978600A182D58FC2079306606D3D
:1012E000C183B387D702C1879387E7E323A6F1823F
:1012F0009307803EB307F702C18723A2F1822285BC
:1013000005616FE03FE50944DDBFEFE27FE20D6577
:101310001305656F113F5145EF1000166FE09FE315
:10132000EFE21FE11165130565F8FD3D054411E588
:101330002A841305401FEF10201422856FE09FE1DF
:1013400081469307F00F13F7F60F6364B7003E85ED
:1013500082803307D50003470700B98F21471398D0
:10136000870113961700135888419377F60F635639
:1013700008009347160393F7F70F7D171377F70FBE
:1013800079FF8506C9B7EFE2BFDA9317850021819F
:101390005D8D93978500A1814111DD8D2314A100FE
:1013A0002315B1001305A1008945593F2306A1006B
:1013B0002C00154613052006EFF06F9901454101F9
:1013C0006FE05FD9EFE2DFD6931505010965C181B2
:1013D000130565414D3F6FE0FFD7EFE27FD5AA854A
:1013E0000D6541111305F562793F13050019EF10E2
:1013F000A0086C000D4613052006EFF0EF9703459B
:10140000C1008347D10041017D8D130515F01335CF
:1014100015006FE03FD4EFE2BFD1AA840964F5352F
:1014200085451305644123A49182B13F1545EF1012
:10143000A0041305141B89C885471305C41A6385C6
:10144000F4001165130565F8C5330545EF10C002BA
:1014500001456FE03FD0EFE2BFCD411102C223133F
:10146000A100C16737050040938707078A851305E8
:1014700005403EC002C402C6EF00306B41016FE080
:101480007FCDEFE2FFCAB7170240984F011132C675
:10149000231C0100231B0100231D0100231E01004A
:1014A0001367470098CFD84FB70600F1FD161367B2
:1014B0002700D8CFB717014003A7078037040040A3
:1014C000758F23A0E78003A70780B7060019558F03
:1014D00023A0E780231CA100231AB10013050440B8
:1014E0004C08EF00D05D32461375F60FAD3713058B
:1014F00004408545EF00306E130504408145EF0040
:10150000D070130504408545EF00506E85451305E6
:101510000440EF00906A05616FE0DFC363D0050609
:101520001307D002930715002300E500B305B04070
:1015300085460967154613070771130E00032943F3
:101540009388170063CFE50233C8E5028506B3E54B
:10155000E5021308080323800701C6877D16334779
:10156000670279FE6397A700130700032380E70053
:101570008507238007003385A7408280AA8781469C
:101580004DBFE9DE2380C701C9BFEFE27FBA37361E
:101590000000894701479306007E130606D3814564
:1015A0006945EFF04FDC4164373600009306F4FFE5
:1015B00089470147130686D3FD557D55EFF0AFDA15
:1015C00037360000894701479306F07F130606D49B
:1015D000E1452145EFF02FD9373600008947014713
:1015E0009306F07F130606D5930580021305C0020B
:1015F000EFF06FD73736000085470147930604FEAA
:10160000130686D5930500047145EFF0CFD56FE042
:101610007FB4EFE2FFB10145EFF06FC441643726BC
:10162000000089470147930604801306465B814505
:101630002145EFF04FD33726000089470147930635
:1016400004E41306465C930500023945EFF0AFD180
:101650003726000089470147930604E41306065D18
:10166000930500033945EFF00FD037260000894776
:101670000147930604E41306C65D930500041305B1
:101680000002EFF04FCEB71701403707020023A842
:10169000E7C001A0EFE23FA87971896539469385DB
:1016A00045560A85EF00B06083D501820808BD3534
:1016B00013898186832709009384018213844187DB
:1016C0006389A700AA8903550400EFF04FB92320CE
:1016D000390103D504001305C5E063530500014536
:1016E00001469305A00FEFE01FF8954763D3A700CD
:1016F00015451C1806053E95835405FD83570400C7
:10170000096505482687140813060002814513055C
:10171000855EEFF08FF103A9C183035704003736CC
:101720000000A6868547130606D189454A85EFF055
:101730008FC30357040037360000A686854713067B
:1017400046D1A9454A85EFF00FC2938461870357BC
:10175000040083D6040037360000130686D189477B
:10176000930540020145EFF00FC003A9C182A949CA
:101770000808B34539035D33336939039307E00241
:101780000357040083D604002309F10093073004B3
:10179000231AF100100889479305400213054006FB
:1017A00013090903A3092101EFF0EFBB035704005C
:1017B00083D6040037360000130606D28947930506
:1017C00040030145EFF02FBA83A541820808B3C555
:1017D0003503A9330357040083D604008947100852
:1017E0009305400313054006EFF0EFB703570400DD
:1017F00083D604003736000089471306C6D2930506
:1018000040031305C007EFF00FB61305900AEFE091
:101810007FB38547630CF50083A741837D7713076A
:101820007744BA97130760446363F7061305900A79
:10183000EFE05FB18547630FF50403A74183856738
:10184000938647C963DDE6049386F7D463DEE60436
:10185000938687E163DFE6049386E7E763D0E606D5
:10186000938727ED63D1E7060D65130545DA8147B8
:1018700018188607BA9783D807FD0148C147130790
:1018800000028146130600089145EFF02FA4456140
:101890006FE0BF8B0D65130545EA9947D1BF0D6514
:1018A000130545D69547E9B70D65130545D691470C
:1018B000C1B70D65130545DE8D475DBF0D65130589
:1018C00045E2894775B70D65130545E685474DB770
:1018D000EFE21F8641119307000350009305C003F8
:1018E0002304F100EFE03FD813050503A304A10092
:1018F00012459307A0035000A9452305F100EFE02E
:101900009FD6924713050503938707032306F1002B
:1019100083D7418703D76187A305A10009653400F8
:10192000054813068003A9451305855EA30601003B
:10193000EFF0AFCF41016FE0FF81EFE2CFFD138900
:1019400041870355090013844187EFF04F910357F6
:10195000090083D66187373600008947130646CBD6
:1019600089450945EFF02FA01309200D9384618765
:10197000FD594A85B13F1305803E7D19EF00D02FF8
:10198000E31939FFEFF0DF991305701AEFF0FFA4A8
:1019900039C937360000C1661306C6CA9386068069
:1019A000035704008947930500020945EFF0AF9BF8
:1019B00083D604000357040037360000854713061A
:1019C00046CC9305800401458564EFF0CF99014929
:1019D000938484BB1305100AEFE0DF960DE1631BCF
:1019E0009900EFF01FC337360000130606CA9306AE
:1019F000007E7DB75145EF0030280509E1BFE302C5
:101A000099FE0145EFF03FA103550400EFF02F854B
:101A10006FE0AFF3EFE22FF0EFF09F900545EFF0AE
:101A20009F9F1305E00F3964EFF0FFA21304041029
:101A300081449D491305100AEFE0DF9019CD85041C
:101A400063DF990203C58183EFF0FFA0EFF05F8DA4
:101A50000145EFF05F9C6FE04FEF95C0EFF02FFF77
:101A600003C581838144EFF01F9FEFF0BFC21305D0
:101A7000C05DEF0070201305E00FEFF0DF9D7D14D7
:101A800055F8EFF01FB9EFE2AFEA797113060002E3
:101A900081450808EFE0CFEC8545114502C202C43C
:101AA00002C6EF00007E854513050020EF00607D33
:101AB0003724014013050440930570039925371519
:101AC000014089474C00130505803EC202C68125AE
:101AD00013050440E12185473ECC0C089D671305A2
:101AE00004403ECE02C802CA02D0E1299D46054606
:101AF000130504408545B123854513050440312B6A
:101B000045616FE02FE5EFE2AFE237240140854504
:101B100013050440192B13050440C5236FE08FE320
:101B2000EFE20FDE01118965C16441469385455797
:101B30000808938A04FEEF0090170144B73B0000A9
:101B4000373C0000FD14130D001E0145EFE03FF18E
:101B500037360000894701479306F07F1306C6CD4C
:101B600081453945EFF02F8085470147D68613869A
:101B70008BCE930500045145EFE0FFFE85470147FA
:101B8000D68613068CCF930580040145EFE0BFFD98
:101B90001C10131624003E96032606FF89470147B2
:101BA000A686930500026945EFE0FFFB8149014BE2
:101BB0000D4A9D4C0549B71D01401305100AEFE081
:101BC0006FF8630A050C181093172400BA9783A9BD
:101BD00007FF01478947A6864E869305000269459F
:101BE000050BEFE05FF863DF6C0D0D4B8947014794
:101BF000A6864E86930500026945EFE0DFF61305E1
:101C0000A00FEF00700789477D47A6864E86930593
:101C100000026945EFE03FF51305A00F7D1BEF00C3
:101C2000B005E3150BFC630324076347890029C84B
:101C300081490D4B814725A08947630CF404E319C2
:101C400044FF0145EFE0BFE11305100AEFE08FEF1D
:101C5000E30C25FFEFF01FA4228B814985478509FE
:101C600063563D01B706020023A8DDC01305C00975
:101C70003EC6EF007000B247A9D305616FE00FCCFC
:101C8000EFF0BFCB0145EFF00FF9C1B5EFF09FD8F2
:101C90006DBDEFF01F988147E3030BFC0504635310
:101CA0008A0001441C10131624003E96032606FFEA
:101CB00089470147A686930500026945EFE0BFEA20
:101CC000014B8DBF8149BDB7EFE2EFC4011109455A
:101CD00075236D22B777DC02938707C023A6F180B6
:101CE00093044006EF0080731309F031EFF0BFD981
:101CF00023AA018213844183EFF0FFE008C0054569
:101D0000EF0080771C406344F900FD14F5F437259B
:101D1000014013050540592485451305100AEFE0DD
:101D20000FCF81451305700BEFE06FCE8145130592
:101D3000100BEFE0CFCD8D451305900AEFE02FCDCE
:101D4000B7170140094723A8E7C01307B0FA238952
:101D5000E1861307A0FAA388E186B7070020294788
:101D600023A8E7001306600E1307600E93050020FA
:101D70001305F00F23ACE182EFF0AFF0B7356E0141
:101D8000814801489306200A1306400A1307300AC7
:101D90008147938505600945EFE03FA813051002D0
:101DA000EFE0DF9C13056003EFE05F9C8545930740
:101DB00080060A852300F100EFE0DF9F7D57014593
:101DC000239A0186239BE186EFE07FC9EFF0EFFBCA
:101DD0000145EFF02FDF01450564EFF0CFE3014946
:101DE00013040496814485491D4A856A1305C00978
:101DF000612505099377F90189E7EFF04FC5EFF009
:101E00007F897D1401EC1305900AEFE0AFD36304E2
:101E10003501EFF01F8013840A96C9BF1305100A1D
:101E2000EFE04FD2631635018504E3519AFCD5B734
:101E3000D5DCEFF0FFCE814455BFB7170240984381
:101E4000B70600F99386F6F51367170098C3D843D1
:101E500013670705D8C3D843758FD8C33727024007
:101E60001443F19A14C3144393E6260014C3D843D1
:101E70001377F7F0D8C3D843D8C38280B71602408F
:101E8000DC42918313F7F700B70700209387070020
:101E9000BA9783C70700D4423777DC0293F7F70F6E
:101EA000130707C093F606083356F70099E2335636
:101EB000F70223A6C180828001A001A001A001A099
:101EC00001A001A001A001A001A001A001A001A00A
:101ED00001A001A001A001A001A001A001A001A0FA
:101EE00001A001A001A001A001A001A001A001A0EA
:101EF00001A001A001A001A001A001A001A001A0DA
:101F000001A001A001A001A001A001A001A001A0C9
:101F100001A097F1FF1F9381E18F1731002013017A
:101F2000610E171500001305256997E5FF1F9385BE
:101F3000650D1386018263FAC5008322050023A084
:101F4000550011059105E3EAC5FE13850182971539
:101F50000020938525946377B500232005001105A3
:101F6000E36DB5FEFD42739002BC8D4273904280DA
:101F70009302800873A0023097E2FFFF9382C208A9
:101F800093E2320073905230EFF03FEB9702000083
:101F90009382C2D37390123473002030B72701406C
:101FA00093870740631EF500EFE28F988545130580
:101FB0000020FD24814513050020DD246FE08F996A
:101FC00082805C413707F1E01307F7EF944D7D8F76
:101FD0009C41D58FD44DD58FD441A206D58FD98FB2
:101FE0005CC11C4537F7F1FF1307D77FD4457D8FC0
:101FF0009C49D58F94458606D58FD98F1CC55C55D5
:10200000370710FF7D177D8F83C74501FD1793F7B5
:10201000F70FD207D98F5CD582801C4589C593E71D
:1020200017001CC58280F99BEDBF1C4591C5370781
:102030005000D98F1CC582803707B0FF7D17F98FFC
:10204000D5BFA54763F7B7048D47138765FF3307EF
:10205000F7020328C5009D47B397E70093C7F7FF32
:10206000B3F70701B396E600DD8E54C5994763E3E5
:10207000C70495477D163306F6025859FD47B397B6
:10208000C70093C7F7FFF98F3396C5005D8E50D90F
:1020900082800D473387E502032805019D47B397EA
:1020A000E70093C7F7FFB3F70701B396E600DD8EAD
:1020B00014C96DBFB14763E2C70295476516330681
:1020C000F6021859FD47B397C70093C7F7FFF98F7A
:1020D0003396C5005D8E10D9828095474D16330624
:1020E000F6025855FD47B397C70093C7F7FFF98F1E
:1020F000B395C500DD8D4CD5828068454205418190
:1021000082803C4993F707E0DD8D2CC98280984599
:10211000937707011378F70081C7DC413368F80033
:102120009441814713F6F60F39C21C410146854E92
:102130003D4F930F800293028004214EB398CE004E
:10214000B3F516016391B80213132600B3156F009F
:1021500093C5F5FFED8F33136800B367F300631782
:10216000F70D232A15010506E31AC6FD1CC14166B9
:10217000130606F0758E3DC23716014093050680A2
:10218000631BB50A83A70181A145854E3D4F930F7F
:10219000800293028004414E3393BE0033F6660002
:1021A0006312C302139625000116B318CF0093C81B
:1021B000F8FFB3F7F8003316C800D18F6319F70999
:1021C000232A65008505E399C5FD371601405CC1EA
:1021D000930506806312B50823A8F180C16763E602
:1021E000F604504D8147054E3D4F930F80029302F8
:1021F0008004A14E93850701B315BE00B3F8B60065
:10220000639115039398270033131F011343F3FFC2
:102210003376C300B318180133E6C800631AF70514
:102220004CC98507E398D7FD50CD8280E31D57F256
:10223000232815010DBF930506C06315B50083A7BC
:10224000418199B7E312C5F483A7818135BFE31BB0
:1022500057F623286500BDB7930506C06315B50082
:1022600023AAF180A5BFE31BC5F623ACF180BDB75F
:10227000E31957FAB315FE000CD165B723ACA1865C
:10228000828099C5371702401C4F5D8D08CF828030
:10229000B7170240984F1345F5FF798D88CF82809C
:1022A00099C5371702405C475D8D48C78280B717D4
:1022B0000240D8471345F5FF798DC8C78280835700
:1022C000050037370140130707C0C207C183630603
:1022D000E500370700406317E50003D7250093F7B3
:1022E000F7F8D98F03D7650093F7F7CFC207C183FB
:1022F000D98F2310F50083D745002316F50283D725
:1023000005002314F502B7370140938707C0630621
:10231000F500B70700406316F50083C78500231852
:10232000F5028547231AF50082808357050203D6FC
:10233000050003D82500C207C183F99BC207C183EA
:102340002310F50283570502835645000357850184
:10235000C207C183420741831377C7F8518F03D661
:102360008500F59BC20633660601D18F37360140E2
:10237000130606C0C1826306C5003706004063131A
:10238000C50203D6A500DD9B03D8E500D18F03D697
:102390004500ED9B93F6F6CFD18F03D6C50033668B
:1023A0000601D18E2312D500231CE50003D765005A
:1023B000231AE5022310F50282808357050091C598
:1023C00093E717002310F5008280C207C183F99BB1
:1023D000C207C183C5BF8357450491C52167D98F03
:1023E0002312F5048280C607C583DDBF835705002D
:1023F00091C593E707082310F5008280C207C183C7
:1024000093F7F7F7C207C183FDB783578501C2076A
:10241000C183DD9BDD8D231CB500828083A7C18035
:1024200037177A0013070720B3D7E70293F7F70FA0
:10243000238FF1861307803EB387E702239EF18640
:102440008280B7F700E0D8438146799BD8C303C7A1
:10245000E1873306A70290CBD4CB984313670701DB
:1024600098C398431367170298C3D843058B75DF49
:102470009843799B98C38280B7F700E0D8438146A0
:10248000799BD8C303D7C1873306A70290CBD4CB9F
:1024900098431367070198C398431367170298C3BB
:1024A000D843058B75DF9843799B98C38280B3C767
:1024B000A5008D8B3307C50081E78D4763EEC7000C
:1024C000AA876370E50A83C6050085078505A38F83
:1024D000D7FEE3EAE7FE828093763500AA8791CAA9
:1024E00083C6050085078505A38FD7FE93F63700C1
:1024F000FDB79376C7FF138606FE63F0C70683A376
:10250000050083A2450083AF850003AFC50083AEFD
:10251000050103AE450103A3850183A8C501938589
:10252000450223A0770003A8C5FF23A2570023A4D8
:10253000F70123A6E70123A8D70123AAC70123ACEB
:10254000670023AE17019387470223AE07FF75B7D5
:1025500090419107910523AEC7FEE3EBD7FEE3E47C
:10256000E7F68280E007E067E0FF40FEC0FB00F88E
:10257000FFFF0000E42E0000F02E0000FC2E000003
:10258000082F000052090000B20900006209000093
:1025900092090000A20900009608000096080000B9
:1025A000B209000096080000B2090000820900008C
:1025B00072090000506F776572696E67204F66661A
:1025C0000000000052656C656173652074686500E9
:1025D000627574746F6E207768656E0072656164F1
:1025E000792E2E2E00000000F4250000C82B0000DC
:1025F000203A300000FEFEFEFEFEFEFE7E7E7E7E67
:102600007E7E7E7E7E7E7C7C7C0000003CFEFEFE2C
:10261000FE3CF1EF1EF1EF1EF1EF1EF1EF1EF1CEC9
:102620001CE1C000F1E001E3C003C780078F001E7A
:102630003C003C780078F000F1E03FFFFC7FFFF8C1
:10264000FFFFF1FFFFE03C780078F000F1E001E3EC
:10265000C0078701FFFFF3FFFFE7FFFFCFFFFF800A
:10266000F1E001C3C0078F000F1E001E3C003C7844
:102670000078F001E1E00000700007000070000742
:102680000003FC00FFF01FFF83FFFC7FFFC7F0FE8D
:102690007E0FE7E07E7E07E7E0007F0007F8003F5F
:1026A000F001FFC00FFE003FF800FFC003FC000F69
:1026B000E000FEFC07EFC07EFE0FEFF0FE7FFFE7BD
:1026C000FFFC3FFF80FFF003FC000E0000E0000E67
:1026D0000000E0001F800007FC0001FF80007FF881
:1026E000100F8F0781E1E0F03C3C3C07878F00F83A
:1026F000F1E01FFE7801FFCF001FF3C001F8F000EA
:10270000001E000007800001F000003C7C000F3F2D
:10271000E001EFFE0079FFE01E7C7C03CF8780F1B3
:10272000F0F03E3E1E0787C7C1E07FF80C0FFE00A9
:1027300000FF800007C001FC0000FF8000FFF000E8
:102740003FFE001FFFC007E3F001F07C007C1F008C
:102750001F07C007E3E001FFF8003FFC000FFE0089
:1027600001FF0000FF83F07FF0FC3FFE3F1FFF8F63
:1027700087E7F7E3F8FFF8FE1FFE3F83FF0FE0FF58
:10278000C3FC3FE07FFFF81FFFFF03FFFFE03FFDBB
:10279000FC03F83F80F7BDEF7BDEF7BC00401E0373
:1027A000E07E07C0F81F01F03E03E03E07C07C0753
:1027B000C07C07C0FC0FC0FC0FC0FC0FC0FC0FC0EA
:1027C0007C07C07C07C07C03E03E03E01F01F00FE4
:1027D000807C07E03E01E004400F00F80FC07C035E
:1027E000E01F01F00F80F80FC07C07C07C07E07E7F
:1027F00007E07E07E07E07E07E07E07E07E07E07D9
:10280000C07C07C0FC0F80F81F01F03E07E0FC0F02
:1028100080F0040001E0003C00078000E0041C118F
:10282000E38F3FF7E7FFFC3FFE407C001FC007BC83
:1028300001F7C07C781F0F80E0E008080001F80075
:102840001F8001F8001F8001F8001F8001F80FFFB2
:10285000FEFFFFEFFFFEFFFFEFFFFE01F8001F800E
:1028600001F8001F8001F8001F8001F8001F803E62
:102870003E3E3E3E3E3E3E7C7CF8F830FFF7FFBFDA
:10288000FDFFEFFF003C3F3F9FE7E1E0003E003CE3
:10289000007C007C007800F800F800F001F001F006
:1028A00001F001E003E003E003C007C007C00780B8
:1028B0000F800F800F001F001F001E003E003E0013
:1028C0003E003C007C007C00F80003F800FFE01FA5
:1028D000FF03FFF87FFFC7F1FCFE0FEFE0FEFC07F0
:1028E000EFC07EFC07EFC07EFC07EFC07EFC07EF69
:1028F000C07EFC07EFC07EFC07EFC07EFC07EFE068
:10290000FEFE0FE7F1FC7FFFC3FFF81FFF00FFE0B3
:1029100003F800001803E07F8FFEFFFBFFEFFFBF0F
:102920007EC1F807E01F807E01F807E01F807E016E
:10293000F807E01F807E01F807E01F807E01F8079E
:10294000E01F807E01F801FC003FF807FFF07FFFE9
:1029500083FFFE3F87F1F81FDFC0FEFE07F7F03F61
:102960008001FC001FC000FE000FE000FF000FF020
:1029700000FF000FF0007F0007F0007F0007F0006D
:102980007F8007F8007FFFF3FFFF9FFFFCFFFFE75B
:10299000FFFF0003FC003FFC03FFFC0FFFF87FFF7D
:1029A000E1FC3FCFE07F0001FC0007F0001FC0000A
:1029B000FE007FF001FF8007FC001FFC007FF80095
:1029C0000FF0001FC0003F0000FC0003FBF80FCF1A
:1029D000E07F3FC3FC7FFFE1FFFF83FFFC03FFC0FD
:1029E00003FC00001FC0007F0003FC001FF0007FFD
:1029F000C003FF000FFC007FF003FFC00FFF007D4E
:102A0000FC01F7F00F9FC07E7F01F1FC0FC7F03E85
:102A10001FC1F87F0FFFFFBFFFFEFFFFFBFFFFEFB0
:102A2000FFFF8007F0001FC0007F0001FC0007F0DF
:102A3000001FC01FFFE0FFFF0FFFF87FFFC3FFFE77
:102A40001F8000FC0007E0003F0001F8000FDF805E
:102A5000FFFF07FFFC3FFFF0FC3F8080FE0007F018
:102A6000001F8000FC0007EFE03F3F03F9FC1FCF91
:102A7000F1FE3FFFE1FFFE07FFF00FFE001FC00069
:102A8000003F0007F800FFC00FFE00FFF00FF80046
:102A9000FF000FF0007F0007F0003F9F81FBFF0F5A
:102AA000FFFC7FFFE3FFFF9FE3FCFC0FF7E03FBF6E
:102AB00001FDF80FEFC07F7E03FBF83F8FE3FC7F43
:102AC000FFE1FFFE07FFE01FFE001F8000FFFFFB8E
:102AD000FFFFEFFFFFBFFFFCFFFFF0001FC0007E06
:102AE0000003F8000FC0003F0001FC0007E0003FBA
:102AF0008000FC0007F0001FC000FE0003F8000F7C
:102B0000C0007F0001F8000FE0003F8001FC0007DB
:102B1000F0003F8000FE0003F8001FC00003F80132
:102B2000FFF03FFF87FFFC7FFFCFF1FEFE0FEFE0DE
:102B3000FEFE0FEFE0FE7F1FC3FFF81FFF00FFE068
:102B40003FFF87FFFC7F1FCFE0FEFC07EFC07EFC4E
:102B500007EFC07EFE0FEFF1FEFFFFE7FFFC3FFF38
:102B600081FFF003F80003F800FFE01FFF03FFF808
:102B70007FFFC7F1FCFE0FEFE0FEFC07EFC07EFC1D
:102B800007EFC07EFC07EFE07EFF0FE7FFFE7FFF51
:102B9000E3FFFE1FF7E07CFE000FC001FC003F805A
:102BA0000FF80FFF00FFE00FF800FF000F80003C60
:102BB0003F3F9FE7E1E00000000000000000000050
:102BC000003C3F3F9FE7E1E0000001010B000000F7
:102BD0000100081D0C02E3001E000C0B0E01E200B8
:102BE0002F00171D1800E300830014251802DF00D2
:102BF000E0001B1D1F02E30042011A1D1C01E3003F
:102C0000A101050B0701E200A8010C280F02E10059
:102C1000E4010C280F01E100200213111401E3006C
:102C2000490214141601E9007B02080D0C01FA0098
:102C300088020D051303F100910209060D02FA0046
:102C40009802101F0FFFE300D602141D1802E300C4
:102C50001F030E1D1803E3005203151D1801E300A6
:102C60009F03161D1801E300EF03161D1801E30072
:102C70003F04151D1801E3008C04151D1802E30024
:102C8000D904161D1801E3002905141D1802E300DC
:102C90007205141D1802E300BB0509160D02EA00B7
:102CA0005375636365737321000000004661696CAE
:102CB0006564000043616C6962726174696E672EBD
:102CC0002E000000507265737320627574746F6E0D
:102CD00020746F2065786974000000004F7074697B
:102CE0006F6E204D656E7500507265737320746F42
:102CF000206368616E67650050726573732B686F3F
:102D00006C6420746F2073656C6563740000000050
:102D1000434F320070706D0054656D7020000000EC
:102D200048756D6964697479200000002500000011
:102D3000434F3220000000004D6963726F000000B5
:102D4000506F727461626C6520434F320000000066
:102D500053656E736F7200005374617274696E67AD
:102D60002E2E2E00E0000000CFFFFFFEDFFE3FFE14
:102D7000DFFE3FFE9FFE3FFE3FFFFFFE7FFE3FFE6A
:102D80007FFC1FFE7FFC1FFE7FFC1FFE3FFC1FFE23
:102D90009FFC1FFEDFFC1FFEDFFE3FFECFFFFFFE9E
:102DA000E0000000E0000000CFFFFFFEDFFFFFFEBD
:102DB000DC1041069C1041063C1041067C10410687
:102DC0007C1041067C1041067C1041063C104106F7
:102DD0009C104106DC104106DFFFFFFECFFFFFFE27
:102DE000E0000000E0000000CFFFFFFEDFFFFFFE7D
:102DF000DFFFFF069FFFFF063FFFFF067FFFFF0687
:102E00007FFFFF067FFFFF067FFFFF063FFFFF06F6
:102E10009FFFFF06DFFFFF06DFFFFFFECFFFFFFE86
:102E2000E0000000E0000000CFFFFFFEDFFFFFFE3C
:102E3000DFFFC1069FFFC1063FFFC1067FFFC1063E
:102E40007FFFC1067FFFC1067FFFC1063FFFC106AE
:102E50009FFFC106DFFFC106DFFFFFFECFFFFFFEC2
:102E6000E0000000E0000000CFFFFFFEDFFFFFFEFC
:102E7000DFF041069FF041063FF041067FF041063A
:102E80007FF041067FF041067FF041063FF04106AA
:102E90009FF04106DFF04106DFFFFFFECFFFFFFEA0
:102EA000E0000000E0000000CFFFFFFEDFFFFFFEBC
:102EB000DFF99FFE9FF99FFE3FF99FFE7FF99FFE7E
:102EC0007FF00FFE7FF00FFE7FF00FFE3FF81FFE3A
:102ED0009FFE7FFEDFFE7FFEDFFE7FFECFFFFFFE59
:102EE000E000000043616C6962726174650000007B
:102EF0004C6F7720506F776572000000506F7765D8
:102F000072204F666600000045786974204D656E3A
:102F100075000000500050005000800080008700C5
:102F2000AC00F000F000F0008000F000A000A00075
:102F3000A0008000A000F0004001F0001801400156
:102F40008000400100000101002800001400010081
:102F500018181A000035220000000200023A05028B
:102F6000366811E009160920211B131917151E2BAD
:102F70000405020E11E10B14081E221D181E1B1A57
:102F8000242B0606020F012001290000023A050247
:102F9000366011E009160920211B131917151E2B85
:102FA0000405020E11E10B14081E221D181E1B1A27
:102FB000242B0606020F0120012900000113012124
:102FC000023660023A550337000006B20C0C00339B
:102FD0003302B73502BB1A02C02C02C20102C30B76
:102FE00002C42002C60F03D0A4A10FE000191E0ADC
:102FF00009153D44511203003F3F0FE100181E0A1E
:1030000009253F43523303003F3F012900000000E0
:10301000023A0502366811E009160920211B13192E
:1030200017151E2B0405020E11E10B14081E221D9C
:10303000181E1B1A242B0606020F0120012900006E
:10304000023A0502366811E009160920211B1319FE
:1030500017151E2B0405020E11E10B14081E221D6C
:10306000181E1B1A242B0606020F0121012900003D
:10307000000000000000000000065F5F060000077F
:103080000700070700147F7F147F7F14242E2A6B0C
:103090006B3A12466630180C6662307A4F5D377AAA
:1030A0004800040703000000001C3E6341000000CC
:1030B00041633E1C0000082A3E1C3E2A0800080806
:1030C0003E3E0808000080E0600000000808080894
:1030D0000808000000606000006030180C06030162
:1030E0003E7F594D477F3E40427F7F4040006273A4
:1030F00059496F6600226349497F3600181C1653F0
:103100007F7F50276745457D39003C7E4B497930AC
:1031100000030371790F0700367F49497F360006A7
:103120004F49693F1E0000000066660000000080F5
:10313000E6660000081C36634100000014141414F5
:103140001414004163361C0800000203595D070295
:103150003E7F415D5D5F0E7C7E13137E7C00417F70
:103160007F49497F361C3E6341416322417F7F4155
:10317000633E1C417F7F495D4163417F7F491D0163
:10318000031C3E63415133727F7F08087F7F00003C
:10319000417F7F410000307040417F3F01417F7F90
:1031A000081C7763417F7F414060707F7F0E1C0E5B
:1031B0007F7F7F7F060C187F7F1C3E6341633E1C30
:1031C000417F7F49090F061E3F2131617F5E417FAC
:1031D0007F09197F66266F4D4959733203417F7FFE
:1031E0004103007F7F40407F7F001F3F60603F1FA3
:1031F000003F7F6030607F3F63771C081C77630768
:103200004F78784F0700476371594D6773007F7F90
:10321000414100000103060C1830600041417F7FEE
:103220000000080C0603060C0880808080808080E7
:1032300000000307040000207454543C7840417F90
:103240003F48487830387C44446C280030784849FE
:103250003F7F40387C54545C1800487E7F49030609
:103260000098BCA4A4F87C04417F7F08047C78000B
:10327000447D7D40000060E08084FD7D00417F7FD3
:1032800010386C4400417F7F4000007C7C18781C23
:103290007C787C7804047C7800387C44447C38005A
:1032A00084FCF8A4243C18183C24A4F8FC84447C36
:1032B000784C040C18485C547464240004043E7F69
:1032C0004424003C7C40403C7C401C3C60603C1CF6
:1032D000003C7C6030607C3C446C3810386C449C12
:1032E000BCA0A0FC7C004C64745C4C640008083EEC
:1032F00077414100000000777700004141773E08A8
:1033000008000203010302030170784C464C7870F8
:1033100001130121023668023A550337000006B254
:103320000C0C00333302B73502BB1A02C02C02C2A8
:103330000102C30B02C42002C60F03D0A4A10FE0F8
:1033400000191E0A09153D44511203003F3F0FE1C9
:1033500000181E0A09253F43523303003F3F01294D
:103360000000000004EF03800204CF00C13005ED2F
:103370006403128104E885007806CB392C003402FE
:1033800002F72003EA000002C02302C11003C53E79
:103390002802C7860236480120023A5503B10018B8
:1033A00004B608822702F20002260110E00F312B3A
:1033B0000C0E084EF1370710030E090010E1000E45
:1033C0001403110731C148080F0C31360F03B10047
:1033D00010000000000000000000065F0600070368
:1033E000000703247E247E24242B6A120063130822
:1033F000646336495620500007030000003E410038
:103400000000413E0000083E1C3E0808083E080837
:1034100000E0600000080808080800606000002064
:10342000100804023E5149453E00427F400062516F
:1034300049494622494949361814127F102F4949F3
:1034400049313C4A49493001710905033649494926
:1034500036064949291E006C6C000000EC6C000027
:1034600008142241002424242424004122140802A8
:10347000015909063E415D551E7E1111117E7F499D
:103480004949363E414141227F4141413E7F4949C0
:1034900049417F090909013E4149497A7F080808E5
:1034A0007F00417F4100304040403F7F081422416F
:1034B0007F404040407F0204027F7F0204087F3E3D
:1034C0004141413E7F090909063E4151215E7F0984
:1034D000091966264949493201017F01013F4040EF
:1034E000403F1F2040201F3F403C403F63140814D2
:1034F0006307087008077149454300007F41410098
:1035000002040810200041417F00040201020480EF
:1035100080808080000307000020545454787F444A
:103520004444383844444428384444447F3854544C
:103530005408087E09090018A4A4A47C7F04047818
:103540000000007D40004080847D007F1028440002
:1035500000007F40007C041804787C040478003864
:1035600044444438FC4444443838444444FC44789B
:103570004404080854545420043E4424003C402091
:103580007C001C2040201C3C6030603C6C10106CA7
:10359000009CA0603C006454544C00083E41410033
:1035A00000007700000041413E0802010201003C9A
:0435B0002623263C6C
:1035B40001020304050607080102030405060708BF
:1035C400010000009000002090140020006CDC0238
:1035D40044444444444444444444444400000000B7
:00000001FF
