:040000006F20B02994
:100004000000000000000000F8020000FC020000F4
:1000140000000000442A000000000000000000006E
:10002400462A0000482A00000000000000000000EA
:100034004A2A0000000000004C2A000000000000D2
:100044004E2A0000502A0000522A0000000000003E
:10005400542A0000562A0000582A00005A2A000098
:10006400F61000005E2A0000602A0000622A0000E8
:10007400642A0000662A0000682A00006A2A000038
:100084006C2A00006E2A0000702A0000722A000008
:10009400742A0000762A0000782A00007A2A0000D8
:1000A4007C2A00007E2A0000802A0000822A0000A8
:1000B400842A0000B0040000882A00008A2A000074
:1000C4008C2A00008E2A0000902A0000922A000048
:1000D400942A0000962A0000982A000000000000DC
:1000E400000000000000000000000000000000000C
:0C00F40000000000000000000000000000
:10010000397101436EC619A0397141536AC866CA74
:1001100062CC5ECE19A0397101535AD056D252D456
:100120004ED64AD826DA22DC06DE330161408282CE
:1001300041114AC026C222C406C68282B24D410184
:10014000024D924C224CB24B4101024B924A224A40
:10015000B2494101024992442244B24041018280A5
:100160003D432A876373C3029377F700BDEFADE584
:10017000937606FF3D8ABA960CC34CC30CC74CC796
:100180004107E36BD7FE11E28280B306C3408A06C3
:100190009702000096966780A6002307B700A30683
:1001A000B7002306B700A305B7002305B700A304D3
:1001B000B7002304B700A303B7002303B700A302CB
:1001C000B7002302B700A301B7002301B700A300C3
:1001D000B7002300B700828093F5F50F9396850052
:1001E000D58D93960501D58D61B79396270097021B
:1001F000000096968682E78086FA9680C1171D8F4A
:100200003E96E374C3F8A5B7EFF29FF2854511451A
:10021000EF20304685450545EF20D04301451DBF01
:100220001387C1CB231007002311070023120700F7
:1002300023030700F946A303D7002314070023155F
:100240000700231607009387C1CB01474146931649
:100250001700BE96239706000507E31AC7FE2387FB
:1002600007022398070223990702238A0702239B88
:100270000702238C0702A38C070223A8018223AA6A
:10028000018215C5238D0702130720FCA38DE70209
:100290000547238EE702A38E0702238F0702A38F51
:1002A000070221472380E7047947A380E70482807F
:1002B0009387C1CB03C7D70303C7C70303C7B703DC
:1002C00003C7A70303C7E70383C7F703B737024092
:1002D0001387C18B23ACE74003D7A7424207418372
:1002E0004D9B420741832395E74203D7A74242072C
:1002F00041832395E74282807300203001A0EFF212
:100300003FE385450545EF20D03685450565EF205F
:10031000703489B5B7370240130700042386E740DD
:1003200013078004A386E740138741D023A8E74042
:10033000138741D423AAE740370700201307C712C9
:1003400023ACE740138741D823AEE7400947239108
:10035000E7422395074223920742239607422393BD
:10036000E7422397E7429387C18323800700A38056
:10037000070023810700A381070023820700A382CF
:10038000070023830700A38307008280EFF25FDA70
:1003900041118545414502C202C402C6EF20702DBD
:1003A000C1673EC24C009147371501403EC6EF2061
:1003B000500EB70702003EC24C0093078004371569
:1003C00001403EC6EF20F00C410169B3EFF25FD669
:1003D00041112EC629CD5D3F370701401C4FB24564
:1003E00093F707F3B1E193E78708B73402401CCFD6
:1003F00023800440053793079002A38104402380A3
:10040000F440FD572383F440930710F8A380F44091
:100410009D472381F4400967B7E700E01384044057
:1004200023A2E71041013DB393E7C70C7DBF370717
:1004300001401C4F37340240294593F707F71CCF82
:1004400099472300F440EF20B040B7E700E02300D5
:100450000440096723A2E718F1B71307F5FF1377E4
:10046000F70F994763E3E7049387C183AA9703C70C
:10047000070005451377F70F1DEBEFF27FCB2380C5
:10048000A700138541D83284EF20B04537370240AA
:10049000231687428357E7420145C207C183F19B78
:1004A000C207C1832317F74275B105458280828058
:1004B000011122CE3734024026CC4ACA4EC852C659
:1004C00056C4130404400347640083477400137741
:1004D000F70F937627006385066E93F7F70F13F7F0
:1004E0000703930500026306B71293060003630C2B
:1004F000D72C631E071C13F7F703630E07228947E7
:100500006317F71C8357A40293C707082315F40247
:100510001387C1CB1044834587008346970042066A
:100520004182A206CD8E8606BA969375F60F03C554
:10053000E60021822387B60083C5F600A387C600A4
:100540000346870083469700834587009387C1CB86
:10055000A206D18E8506C206C18213F6F60F2304C9
:10056000C700A18203469700A304D7000346870073
:1005700083469700A206D18E370600209A061306FE
:10058000C612B29614CC8346870003479700220711
:10059000558FBD4663FBE60003C787002384070031
:1005A00003C79700A384070010CC83C6C70003C706
:1005B000D70003C6C7002207558F050742074183AE
:1005C0009376F70F2386D700218383C6D700A386AF
:1005D000E70083C6C70003C7D7002207558FB5467B
:1005E00063F7E60EB736024003D7A642938606406D
:1005F000420741834D9B420741832395E60203D77F
:10060000A602136787002395E6020547A38CE7023D
:100610007DA893F7F703930610026382D70C930625
:1006200030026382D70E6394E70A9387818483D76D
:10063000070093848184C207C18389E79307000878
:100640002311F40283C7A18493F70706C9E383C784
:100650004184154793F7F70F6380E70619476398BE
:10066000E70683D704001307F0031304000463664E
:10067000F70003D4040042044180138901858329D3
:1006800009002286CE85138541D0EF20902583D79F
:100690000400A29923203901818FC207C1832390CE
:1006A000F400B73702402390874203D7274213470D
:1006B00007042391E74221A8373702408347374098
:1006C00083C6818393F70708D58FA301F740B73717
:1006D000024009472383E7409387074039A38357A4
:1006E000640293C707042313F40283576402C2070A
:1006F000C183F19B93E727002313F4029387C183FF
:10070000A3800700E9B78357E40293C707042317C0
:10071000F4028357E402C207C183F19B93E72700E9
:100720002317F4029387C183A38107009387C1CB6A
:10073000238A070269BF184493F70704C9DB83C7FC
:10074000A1841384818493F70706ADC323100400AA
:1007500083C74184639CF504138741D08346070017
:100760009387C1CB238DD70283461700A38DD70271
:1007700083462700238ED70283463700A38ED702F5
:1007800083464700238FD7028346570003476700FD
:10079000A38FD7022380E7047947A380E70403C728
:1007A00077001377F70FA380E70419368357040007
:1007B000C207C183E39D07F0B73702402390074289
:1007C00013070004FDB59307A00C2311F4029386D0
:1007D00041D083C706001386A1842300F60083C797
:1007E000160003D86600138741842300F70083D8DE
:1007F000260093878184239007011388C1842310E6
:10080000180183D846001388618423101801034817
:100810000600138981849389A184137808061386BE
:1008200041D09387C184938661846300080A83C79B
:1008300009009384018593F70702ADCF8347070032
:100840001307100293F7F70F6382E7066368F70454
:1008500001446384B7001304F00F835709001307A2
:10086000F003130A00046367F700035A0900420A01
:10087000135A0A0183AA04005286138541D0D685F3
:10088000569AEF20100623A044019307F00F631639
:10089000F410B73702401307F00C21BD13073002E4
:1008A0001304F00FE36BF7FA014445BF938761CF60
:1008B0009CC0DDBF03C409001980134414000588DF
:1008C000330480401374F40F49BF03470700AD455C
:1008D0001377F70FE3EFE5FA91650A07938545BAB9
:1008E0002E971843028703D70700894621839384F4
:1008F00001856306D7020D466300C7048547631967
:10090000F70499671387C7AD83C7C7AD98C0014483
:1009100003570900E3F3E7F42310F9003DBF19671B
:10092000130787A98347370098C003472700A2070A
:10093000BA97C207C183E1BF83D70700054693F783
:10094000F70F6381C70289CB6385D702638AE70209
:1009500081471304F00F6DBF1387818298C083C74E
:10096000818275B79967138707AF98C083C707AFB0
:1009700079BF9967138707B098C083C707B041BF95
:100980009967138787B198C083C787B149B783D761
:10099000070093F7F70F238CF18283C709000357F1
:1009A0000900E207E18763DC071E9307000463E6A2
:1009B000E70083570900C207C183035709001D8F51
:1009C000420741832310E900373702402310F742E2
:1009D000930700042311F742DDB983C791832300F5
:1009E000F600035709008547E3F9E7FA2310F900F9
:1009F0006DB783D7070093F7F70FA38CF1820547F4
:100A0000238DE18259BF03C709007D8B0DE383D796
:100A10000700054793F7F70FE391E7F89387B18352
:100A200003C707001377E70F2380E700BDB703C7AD
:100A3000090009467D8BE31EC7E483D7070093F7BF
:100A4000F70FE39807E483D60600B7370240130692
:100A5000100893F6F60F93870740638DC6081306B8
:100A600030086380C60AE396E6E22395070235B7AD
:100A700003C709007D8B15E783D70700054793F768
:100A8000F70FE398E7E0996783C7F7A993F70702A1
:100A9000E38107E09387B18303C70700136717005B
:100AA00061B703C6090009477D8AE314E6DE83D7F0
:100AB000070093F7F70FE39E07DC03D70600B7376D
:100AC0000240930610081377F70F93870740630FD0
:100AD000D700930630086302D702E31CC7DA03D7B6
:100AE000A7021367C7002395E70245BD03D7670236
:100AF000136737002393E7024DB503D7E702136767
:100B000037002397E70251BD23000600D9BD83C7F4
:100B1000090023100600FD8B8DE383C7B1830144D8
:100B2000858B81C789472300F60003570900894751
:100B3000E3FDE7D42310F90089BB83C50900894789
:100B40001304F00FFD89E392F5FE03D70600B737D3
:100B50000240930610081377F70F93870740630F3F
:100B6000D700930630086307D702E310B7FC83D79A
:100B7000A7023147B18B639DE70001A883D76702C5
:100B80000D4701448D8BE392E7FA85472300F60079
:100B9000014461BF83D7E7020D478D8BE9BF420750
:100BA000B737024041839387074001EB2390070248
:100BB000130700042391E70219BE13070008DDBFE5
:100BC0009377170085CFA38C0182238C0182A38D9C
:100BD0000182238D0182A3010400EFF0AFF30545EC
:100BE000EFF00FE485472303F4007244E2445249D6
:100BF000C249324AA24A0561730020309377470008
:100C000095CB034754009387B183118B09CF03C75A
:100C10000700136727002380E70083C70700B73763
:100C20000240114745BC03C707001377D70F238045
:100C3000E700F5B72303E4004DBF1377050F9307D3
:100C4000000B630BF7049307000C6302F70693068F
:100C5000000A8147631CD700371702401C4F93E7F7
:100C600047001CCFB7170140938707809376F500A4
:100C7000218935ED9043139526003D473317A70092
:100C80001347F7FF718F05466388C504634AB602B0
:100C9000C546A1C598C38280371702401C4F93E711
:100CA00087001CCFB7170140938707C0C1B737171C
:100CB00002401C4F93E707011CCFB71701407DB7D7
:100CC0000948638005030D48E39605FDB316D60079
:100CD000D4CB9306800211A091463395A600498F8C
:100CE00055BFB316D60094CB93068004FDB7E1162A
:100CF00093F6F60FD043139526003D473317A70010
:100D00001347F7FF718F05466388C5026346B60037
:100D1000C54685C5D8C382800948638405030D484C
:100D2000E39A05FF93058002A1063395A500B3164B
:100D3000D600498FD4CBF9BF91463395A600498F91
:100D4000D1BF93058004A1063395A500B316D60044
:100D5000498F94CBC1B79307050693F7F70F130795
:100D6000F0036367F700EFF2AFBCC13D6FF08FBED9
:100D700082809377F50005473317F7009306000B41
:100D80009377050F6383D7029306000C6384D70221
:100D90009306000A01456397D700B717014003A5E2
:100DA0008780798D3335A0008280B717014003A575
:100DB00087C0C5BFB71701408847E5B71377F5006F
:100DC0008547B397E70091E1C2071375050F130735
:100DD000000B630FE5001307000C6300E502130727
:100DE000000A631FE500371701402328F78082803F
:100DF000371701402328F7C08280371701401CCBEA
:100E00008280EFF2EFB203C5618AA5376FF08FB42D
:100E1000EFF20FB203C5618A8D45353F6FF08FB396
:100E2000EFF20FB11384618A034504008145253731
:100E300003450400814559376FF0CFB1EFF24FAF52
:100E400003C5518A8D45013F6FF0CFB0EFF24FAE31
:100E50001384518A034504008145F53D0345040090
:100E60008145A93F6FF00FAFEFF2EFAAAA842144AA
:100E700093978401E18763D80704593FC1371389E9
:100E80004180032509007D148604EF20601C7D3F0E
:100E9000032509001374F40F93F4F40FEF20401BA3
:100EA00061F8BD37613F03250900EF20601A913FCB
:100EB0002A84693F03250900EF20801995371335EF
:100EC00014006FF08FA8A93F55BFEFF2CFA42A8A74
:100ED000A1443D3F014413894180032509000604D4
:100EE0001374F40FEF20C016913F03250900EF2083
:100EF0002016013F19C113641400FD1493F4F40F7C
:100F0000B137F1F863010A0221370D3F03250900CB
:100F1000EF200014253F03250900EF206013093757
:100F200022856FF08FA2ED3DCDB7EFF26FA0138455
:100F30004180FD350840EF20A01109370840EF201F
:100F40002011F9350840EF20A0106FF0AFA0EFF2AC
:100F50002F9E41112EC62A84E13503A54180EF2042
:100F6000200FED35B245131514001375F50F81C52B
:100F700005051375F50FCD3D41016FF0AF9DEFF203
:100F80002F9B2E848145B284D9370545054999C0E8
:100F900063052501593F6FF0EF9B05040345F4FFFE
:100FA000E135E31625FFFD14DDB7EFF26F98AE844F
:100FB000854532847D59613F7D1463162401B53720
:100FC00005456FF02F99133514008504FD3DA38F5F
:100FD000A4FEDDB7EFF22F9483A7018141110144F4
:100FE00085836361F508056585451105B7140140E2
:100FF00002C202C402C6EF10D06793070002E149A3
:1010000005494C00138504803EC24EC64AC4EF1009
:101010005048930700084C00138504803EC24EC61A
:101020004AC4EF1010479307800363F4870013044A
:101030008003F177938747305D8C4204B7370140D6
:1010400041802390870003D747001367270023922E
:10105000E70003D70700136707042390E700410167
:101060006FF0AF8E21048583ADBF8147B736014055
:1010700063CAB700373701408357870093F70708E3
:10108000E5FF828003D78600098B6DDF3307F5000B
:101090000347070085072396E600D9BF2A879356A2
:1010A0001500854763F7B600014599E711C218C2DC
:1010B000828086078605FDB76364B7000D8F3E9575
:1010C00085838581DDB781476393C700828033873D
:1010D000F500834607003307F50085072300D70096
:1010E000E5B781473307F5000307070019E33E859D
:1010F00082808507C5BF5D713ED4B70702403AD6EE
:10110000984386C696C4420741832317E1000357DC
:10111000E1009AC29EC02ADE2EDC32DA36D842D2F4
:1011200046D072CE76CC7ACA7EC81377072009CF14
:1011300013070020D8C3985B8545799B98DB03C5CE
:10114000218AAD3923A20186B640A64216438643C2
:101150007255E2555256C2563257A257125882580B
:10116000724EE24E524FC24F61617300203037170A
:1011700002405C4B93E717005CCBB70702408CDF63
:10118000D0DF0D67D4DB1307270998DBB706000112
:1011900037E700E02320D710985B1367170098DB30
:1011A0008280EFE2FFF84111A307A10093874186F7
:1011B0009C43EDFF1384318A034504008145FD3EC5
:1011C0009384218A03C504008145CD3E1305F100B7
:1011D0008545613D03C504008545CD3603450400C2
:1011E0008545E93E41016FE0FFF6EFE2DFF2AA89B3
:1011F000AE841389418683270900E5FF7D4703C537
:10120000218A1384218A63519704B707002083A79A
:1012100007079DCB83C7118A85EB81454536138728
:1012200081801043B7070240C4DBD0DF945B93E6B4
:10123000160094DB85472320F9009387C1809443EF
:1012400090C314C36FE07FF081458D3EA6854E8527
:10125000293D0345040085459536EDB7EFE2BFEB28
:10126000368A33330001A380618AAD46411163ECB5
:10127000A612156E93161500130E0E41369E035ED0
:101280000E0023A0C18923A8C18915631303833FDE
:1012900036938356030023ACD18623A6D1881563E9
:1012A000130383422A938346030023A2D18823AAEF
:1012B000D1881563130343432A938346030023A471
:1012C000D18823ACD188131325001165130545BDC2
:1012D0002A93832603008286130500061564238261
:1012E000A18A1304044A060EBE8923AEC187328543
:1012F000AE8A81453A8BC28446C632892381C18A2F
:10130000EFF07FA54A858545EFF05FAB81455A85B3
:10131000EFF07FA481455A85EFF05FAA13054006E0
:10132000EF10705685455A85EFF05FA91305800CC4
:10133000EF107055B2462686814556856139814544
:101340005285A381418BEFF01FA11389018A81454A
:101350004E8523003901EFF01FA0034509008545A4
:101360000549EFF0BFA505452D3D1305800CEF1095
:10137000905145453D3513054006EF10D05019C03A
:10138000631809088DE0B707002083A7070781CFFE
:1013900003A68180B7350140370502408146B1057B
:1013A00013050503E93341016FE03FDA13058006B9
:1013B00015642382A18A1304444F35B71305000630
:1013C00015642382A18A1304445231BF1305000619
:1013D00019642382A18A1304848431B7130580061B
:1013E00015642382A18A1304447FF5BD130580068A
:1013F00015642382A18A13040444F5B5130500067D
:1014000015642382A18A13040447F1BD0144E1BDA0
:101410000349040093091400630B090003451400F9
:10142000CA9941339305F9FF130524007D3B4E848F
:10143000B9B7EFE2FFCF83A74188011136C63E95C9
:10144000131705014183218303A481882A969317EA
:101450008500D98F7D16231CF10093178600420664
:10146000418221825D8E1305A002231DC1002E94AE
:101470000D3B91452808953BB24613170401418363
:101480002183931784003694D98F7D14231CF10097
:10149000931784004204418021805D8C1305B002C3
:1014A000231D8100FD399145280881331305C002B1
:1014B000CD3905616FE01FCAEFE21FC5131988001F
:1014C000939488001358880093D8880033680901E2
:1014D000B3E814013A8B13190801939408012A8484
:1014E0002E8A3285B6853A86BE86BE8A1359090190
:1014F000C1808137931B1B00814963C459016FE090
:101500003FC403A58180A287814681450146634788
:101510006601DE85D93985095294C5B7858291E681
:1015200083C5070093060008850733F7D5004A886E
:1015300011E32688131716002A97231007010506C2
:10154000F9B7EFE25FBD1314850083A6818703A678
:1015500001882181418D1314050181450145418098
:10156000C93D01499389818793840188054B83A7ED
:1015700009006344F9006FE05FBD63582B01014A25
:101580009C406341FA020509DDB7944003A68180BF
:101590008147E3D6D7FE13971700329723108700B1
:1015A0008507C5BF03A581808945050AEFF0FFC304
:1015B000C1BF11CD634D060063CB06006359E00047
:1015C0006357F000EFE2DFB6C53D6FE0BFB8828041
:1015D000EFE21FB39394860013198700A182218341
:1015E0003367E900C58E13190701939406017D57EF
:1015F0004111AE8A328AC180135909012A846314C9
:10160000E50003A401877D576394EA0083AA41871C
:101610003EC07D556346040663C40A065285EFF05A
:101620005FAC82478546AA8C63E9F60C638DD704CC
:10163000196B9949130B8B8BB3863C0383A70188E5
:10164000A29663D6D70033878740B34C37037D55C6
:1016500063C80C02939749003EC0B3079A01228DDC
:101660003EC2939D1900938BF9FF92476312FA02D1
:10167000B3893C034E9423A8818623AA5187014550
:1016800041016FE0BFAB156BA149130B4B556DB713
:1016900003480A0083A88180A14601183308780313
:1016A0004E866A85D68546C442C66133A248324812
:1016B00021468546138581808147B305F800DA9578
:1016C00083C50500268EF58D91E14A8E939517000E
:1016D000C6952390C5018507E3C177FFEE9886067E
:1016E000239F28FF7D1693F6F60F79F68245084171
:1016F000050A4E9DEFF07FAF8DBF8946E39DD7F67B
:10170000B14683A90188B307D502A29763D6F90031
:10171000B3898940B3CCD9027D55E3C30CF6196B6C
:10172000014C130B8B8B1D4DA14DB1473305FC02B2
:10173000229563149C012A843DBFB3078A0183C9A3
:101740000700954783A881808119B389F902C146B2
:101750003146D68546C0F1398248138F8180C687CD
:10176000DA9993860818239027018907E39DF6FEEE
:10177000938548010545014E131615009387C5FE54
:101780001376F60F4E8383480300B3FFA800638AE5
:101790000F00239D9700239C97002391970023908F
:1017A0009700630AAE038346130093CEF8FF638E5F
:1017B0000F0493CFF6FFB3FFAF0063880F04B37F2E
:1017C000D60163840F04B37FD60063800F0423998E
:1017D0009702239E970091070503E396B7FA239D8E
:1017E0002701239C27012391270123902701050E20
:1017F000938507033285E311BEF903250F00930596
:101800000018050CEFF07F9E0DB7B3FEAE00E38429
:101810000EFCB3FEA600E3800EFCB3F8C800E38C18
:1018200008FA93C6F6FFF18EDDD6239A9702239D20
:10183000970055B7EFE2DF8C5D7142C66304053A4D
:10184000B68BFD562E89328B6394D50003A9018790
:10185000FD566314DB0003AB41873ECA3AC87D5690
:1018600063490904AA853146C800EFF0DF85424785
:10187000D247131A8700939987002183A183336786
:10188000EA00B3E7F900131A070193990701135A05
:101890000A0193D9090183850B0099C583A70188A3
:1018A00093840188634BF90023A8218723AA6187C9
:1018B0000146328561616FE07F888347C10463C25E
:1018C000F50C0347D104634EB70A9D8DA6478E05DC
:1018D0002146BE956818EFF00FFF830A2104834D5F
:1018E000F1030303110403A68187DA9AB387BA01CF
:1018F0004A93834CE1036357F600B30D5641D68EED
:10190000014409A8E3DD0AFE330450413304940383
:10191000BE8D814E9440B305930163D4B600B38C61
:1019200066408355C103164C32472E9C630707124D
:10193000BE8C6353F600B28C834D01043306B901AB
:1019400063D4C600B38D2641B3865C416E86D685CE
:101950004A85EFF01FAE93941D0081480148014372
:101960008346F1036356D30033866A00634D9601C4
:10197000030421045A9436946340940D8347010470
:101980003E99850B09BF03A581808146AA85030680
:10199000110463D4C60063C4B6018146A9A08905B9
:1019A000239F35FF8506E5B76319080013563440B9
:1019B00062968348060021042148030611043696E6
:1019C000635CB601139688016186528E63430600FC
:1019D0004E8E2390C50189057D1886081378F80F6F
:1019E00093F8F80F85060346E103E3CFC6FA338E7A
:1019F000A54093561E40034E01040146330EDE40BF
:101A0000635AC60183061104834EE103B296F6962B
:101A100063CDB601A68546CC42CA1AC8EFF0EFFCEA
:101A20004243E2485248050325BF93161600AE967E
:101A3000239036010506E9B703A58180814663C777
:101A4000B601A685EFF06FFA05043DB713961600B0
:101A50002A96231036018506DDB7938A81806316A6
:101A60003A0D03A60A00814763CE97010148014F52
:101A700081478144A14FA142E352BFF1014EB3031C
:101A8000DF0191A893961700B2962390460185072F
:101A9000E1BF9DE09357344093747400E29783C78D
:101AA0000700B3849F4093F4F40FB3869240B3973A
:101AB000D700269493F7F70F63589E0193968701FA
:101AC000E18663D006020508FD14860793F4F40F3F
:101AD00093F7F70F050E8346E103E34CDEFA050F9B
:101AE00061BFE30308FE33056E009E854286330521
:101AF000054185467ED63ED47AD276D01ACE72CCB7
:101B00001ECA42C8EFF0FF92424803A50A0093158F
:101B10001800EFF08FED0148A142B25FA257125FAB
:101B2000825E7243624ED24345B71A85EE86668660
:101B3000F685EFF01F9003AF0A000148814781440A
:101B40002143214E634CB80903A50A00E308E5E3ED
:101B5000B305AF40EFF06FE915B5A1E893573440F6
:101B600093747400E29703A50A0083C70700B304C7
:101B7000934093F4F40FB3069E40B397D700B30598
:101B8000AF40269493F7F70F63D1BE021ACE3ECC36
:101B900042CA32C8EFF06FE503AF0A007243E24772
:101BA00052484246214E930EE006635C960193969E
:101BB0008701E186D28563C30600CE852310BF006E
:101BC000090FFD14860793F4F40F93F7F70F05063A
:101BD0008346E103E343D6F80508ADB70146930E0B
:101BE000E006FDB77D56F1B1EFE28FD49317850083
:101BF000218141115D8D2E842316A1006C000946C0
:101C000013052006EFF0AFB71545EF10C0476C0085
:101C10000D4613052006EFF04FB98347C100034777
:101C2000D1000145A207D98F2310F40041016FE0D4
:101C30006FD2EFE2EFCF93178500218141115D8DC7
:101C40002316A1006C00094613052006EFF02FB300
:101C5000014541016FE00FD0EFE28FCD03A7C185B1
:101C600089470111631BF70009651305D519D137A1
:101C7000056513058538EF10004139659305E100CE
:101C80001305854B95372A8441E18357E10013976B
:101C900057013DCF3D65130555C0613F1545EF1018
:101CA000803E25460C0813052006EFF00FB0834751
:101CB00001010347110183464101A207D98F239AED
:101CC000F18403576101A206931787002183D98FFE
:101CD00013970701834731014183DD8E9397860077
:101CE000A182D58FC2079306606DC183B387D702E7
:101CF000C1879387E7E323A0F1869307803EB3076C
:101D0000F702C18723ACF184228505616FE08FC49F
:101D10000944DDBFEFE2CFC10D651305656F113FCB
:101D20005145EF1040366FE0EFC2EFE26FC0116532
:101D3000130565F8FD3D054411E52A841305401F90
:101D4000EF10603422856FE0EFC081469307F00FFB
:101D500013F7F60F6364B7003E8582803307D50022
:101D600003470700B98F214713988701139617007F
:101D7000135888419377F60F63560800934716036C
:101D800093F7F70F7D171377F70F79FF8506C9B71C
:101D9000EFE20FBA9317850021815D8D939785003F
:101DA000A1814111DD8D2314A1002315B10013057C
:101DB000A1008945593F2306A1002C0015461305B3
:101DC0002006EFF0CF9B014541016FE0AFB8EFE295
:101DD0002FB6931505010965C181130565414D3F76
:101DE0006FE04FB7EFE2CFB4AA850D65411113053F
:101DF000F562793F13050019EF10E0286C000D46DD
:101E000013052006EFF06F9A0345C1008347D10008
:101E100041017D8D130515F0133515006FE08FB36B
:101E2000EFE20FB1AA840964F535854513056441D5
:101E300023AE9184B13F1545EF10E0241305141B28
:101E400089C885471305C41A6385F4001165130515
:101E500065F8EFF01FDE0545EF10E02201456FE069
:101E60006FAFEFE2EFAC411102C22313A100C167D3
:101E700037050040938707078A85130505403EC054
:101E800002C402C6EF10400B41016FE0AFACEFE2BD
:101E90002FAA37E400E0896423229418232294189F
:101EA0009387C1CB0547238AE70203C76703238BC8
:101EB000070203C77703139605018546AA85418269
:101EC0000D45A38B0702EFE04FD9232294106FE05A
:101ED0006FA8EFE2EFA5B7170240984F011132C685
:101EE000231C0100231B0100231D0100231E0100F0
:101EF0001367470098CFD84FB70600F1FD16136758
:101F00002700D8CFB717014003A707803704004048
:101F1000758F23A0E78003A70780B7060019558FA8
:101F200023A0E780231CA100231AB100130504405D
:101F30004C08EF00B07932461375F60F1D371305C4
:101F400004408545EF10000A130504408145EF1059
:101F5000A00C130504408545EF10200A85451305A4
:101F60000440EF10600605616FE0CF9E63D0050668
:101F70001307D002930715002300E500B305B04016
:101F800085460967154613070771130E0003294399
:101F90009388170063CFE50233C8E5028506B3E5F1
:101FA000E5021308080323800701C6877D1633471F
:101FB000670279FE6397A700130700032380E700F9
:101FC0008507238007003385A7408280AA87814642
:101FD0004DBFE9DE2380C701C9BFEFE2CF93C164E3
:101FE000375600009386048089470147130686D33D
:101FF000C14513058003EFF0AFDD37560000894778
:1020000001479306007E130646D49305000213058C
:102010008003EFF0EFDB3756000089470147FD46AC
:10202000130606D59305800313058002956A05699A
:10203000EFF00FDA094A130B0002D689FD141309D9
:10204000098201449318B40093E8787EC20813858E
:10205000CAED93D8080101489307000513078002D1
:1020600081460146A1450504EFF00FC542044180B9
:102070006545EF104001E31764FD1304F003931866
:10208000540093E87880C2081385C9ED93D80801FD
:102090000148930700051307800281460146A145C8
:1020A0007914EFF06FC1420441806545EF00B07DC7
:1020B000E31794FC1304000293687480C20893D859
:1020C0000801014893070005130780028146014675
:1020D000A1451385C9ED13040404EFF0EFBD4204DC
:1020E00065454180EF00307AE31824FD7D44931864
:1020F000B40093E8787EC2081385C9ED93D808012F
:102100000148930700051307800281460146A14557
:102110007D14EFF06FBA420441806545EF00B07660
:10212000E31794FC85476304FA00054A19BF6FE082
:10213000CF81EFD2FFFF0145EFF0AFC041643746DA
:10214000000089470147930604801306465C8145D9
:102150002145EFF0EFC73746000089470147930656
:1021600004E41306465D930500023945EFF04FC6BF
:102170003746000089470147930604E41306065ECC
:10218000930500033945EFF0AFC437460000894797
:102190000147930604E41306C65E93050004130585
:1021A0000002EFF0EFC2B71701403707020023A883
:1021B000E7C001A0EFD23FF679719165394693856A
:1021C00045B80A85EF00F0711305900AEFE07FBA79
:1021D000854793890186138981859384418563119D
:1021E000F50403A6090083270900A9463367D60230
:1021F000B7550000938505D20808B3C7D702B34688
:10220000D60203D60400EF0030790808EF00107DF5
:10221000AA850808EFF0BFC713054006EF00B066B7
:1022200083D504000808EFF07FD4138AC18983277F
:102230000A00AA8A1384818A6388A70003550400D0
:10224000EFF02FB023205A0103D504001305C5E099
:1022500063530500014501469305A00FEFE01FE41D
:10226000954763D3A70015451C1806053E95835472
:1022700005FD835704001165054826871408794633
:1022800081451305855FEFF0EFDA03AA0187035755
:10229000040037560000A6868547130606D38945F5
:1022A0005285EFF0EFB20357040037560000A686C0
:1022B0008547130646D3A9455285EFF06FB1416AB1
:1022C00015659308FA8101489307800269479306D0
:1022D00080020146914513056535EFF0EF9D1565C8
:1022E0009308F07F014893079002130700029306BA
:1022F00070021306000691451305E51EEFF0CF9B13
:1023000083A40900A9490808B3C53403EFF01FC628
:10231000B3E434039307E0022309F1009307300488
:10232000231AF1008357040005481307FAFF140825
:10233000130620049305000293840403A30991006B
:102340009164138544C0EFF0EFCE8325090008089F
:10235000B3C53503EFF09FC1835704000548130749
:10236000FAFF14081306200493054008138544C09F
:10237000EFF04FCC1305900AEFE0BF9F8547630C49
:10238000F50083A781867D7713077744BA971307F3
:1023900060446363F7061305900AEFE09F9D85474D
:1023A000630FF50403A781868567938647C963DDBC
:1023B000E6049386F7D463DEE604938687E163DF61
:1023C000E6049386E7E763D0E606938727ED63D1BB
:1023D000E70615651305C5D9814718188607BA970A
:1023E00083D807FD0148C147130700028146130641
:1023F00000089145EFF0EF9B45616FD01FD5156543
:102400001305C5E99947D1BF15651305C5D595478E
:10241000E9B715651305C5D59147C1B7156513050E
:10242000C5DD8D475DBF15651305C5E1894775B7E6
:1024300015651305C5E585474DB7EFD27FCF41112F
:102440009307000350009305C0032304F100EFE05D
:10245000FFC413050503A304A10012459307A003BD
:102460005000A9452305F100EFE05FC39247130533
:102470000503938707032306F10083D7818A03D7D7
:10248000A18AA305A1001165340005481306800345
:10249000A9451305855FA3060100EFF0AFB941011F
:1024A0006FD05FCBEFD23FC71389818A03550900F4
:1024B0001384818AEFF0EF880357090083D6A18A3D
:1024C000375600008947130646CC89450945EFF089
:1024D0002F901309200D9384A18AFD594A85B13F9D
:1024E0001305803E7D19EF00103AE31939FFEFF034
:1024F000DF831305701AEFF0FF8E39C937560000DD
:10250000C1661306C6CB938606800357040089472D
:10251000930500020945EFF0AF8B83D60400035703
:102520000400375600008547130646CD9305800406
:1025300001458564EFF0CF890149938484BB13057D
:10254000100AEFE01F830DE1631B9900EFF07FBEDF
:1025500037560000130606CB9306007E7DB7514523
:10256000EF0070320509E1BFE30299FE0145EFF08B
:102570003F8B03550400EFE0DFFC6FD01FBDEFD2AF
:102580009FB9EFF08FFA0545EFF09F891305E00F33
:102590003964EFF01F8D1304041081449D49130525
:1025A000100AEFE00FFD19CD850463DF990203C522
:1025B000C186EFF01F8BEFF04FF70145EFF05F861C
:1025C0006FD0BFB895C0EFF02FE903C5C186814435
:1025D000EFF03F89EFF01FBE1305C05DEF00B02A9A
:1025E0001305E00FEFF0FF877D1455F8EFF07FB48F
:1025F000EFD21FB479711306000281450808EFD0AD
:102600003FB68545114502C202C402C6EF007006FE
:10261000854513050020EF00D00537240140130540
:1026200004409305700385253715014089474C0008
:10263000130505803EC202C6A92D13050440CD2115
:1026400085473ECC0C089D67130504403ECE02C86A
:1026500002CA02D0CD299D46054613050440854592
:102660009D238545130504401D2B45616FD09FAE0A
:10267000EFD21FAC37240140854513050440052BDC
:1026800013050440ED2B6FD0FFACEFD27FA70111F3
:102690009165C1644146938545B90808938A04FE53
:1026A000EF0030240144B75B0000375C0000FD14EC
:1026B000130D001E0145EFE0DFE8375600008947A3
:1026C00001479306F07F1306C6CE81453945EFE0FA
:1026D0003FF085470147D68613868BCF93050004CC
:1026E0005145EFE0FFEE85470147D68613068CD0B3
:1026F000930580040145EFE0BFED1C101316240084
:102700003E96032606FF89470147A68693050002E9
:102710006945EFE0FFEB8149014B0D4A9D4C0549AE
:10272000B71D01401305100AEFE0AFE4630A050C82
:10273000181093172400BA9783A907FF0147894708
:10274000A6864E86930500026945050BEFE05FE81B
:1027500063DF6C0D0D4B89470147A6864E869305B6
:1027600000026945EFE0DFE61305A00FEF00B011AE
:1027700089477D47A6864E86930500026945EFE0AE
:102780003FE51305A00F7D1BEF00F00FE3150BFCD9
:10279000630324076347890029C881490D4B81479A
:1027A00025A08947630CF404E31944FF0145EFE0D9
:1027B0005FD91305100AEFE0CFDBE30C25FFEFF044
:1027C0007F9F228B81498547850963563D01B70666
:1027D000020023A8DDC01305C0093EC6EF00B00A01
:1027E000B247A9D305616FD07F95EFF0BFCB01450C
:1027F000EFF00FE3C1B5EFF09FD86DBDEFF07F9321
:102800008147E3030BFC050463538A0001441C1059
:10281000131624003E96032606FF89470147A68625
:10282000930500026945EFE0BFDA014B8DBF814996
:10283000BDB7EFD25F8E01110945D923E122B777E9
:10284000DC02938707C023A8F18093044006EF00C1
:10285000C07D1309F031EFF0BFD923A401861384A2
:102860008186EFF0FFE008C00545EF00D0011C4075
:102870006344F900FD14F5F43725014013050540C4
:10288000452485451305100AEFE02FBB814513054C
:10289000700BEFE08FBA81451305100BEFE0EFB935
:1028A0008D451305900AEFE04FB9B717014009476E
:1028B00023A8E7C01307B0FA2383E18A1307A0FA1D
:1028C000A382E18A294723A2E1801306600E130741
:1028D000600E930500201305F00F23A6E186EFF0AC
:1028E0004FDF1305900AEFE0CFC88547631BF50063
:1028F000EFD09F91EFD0BFA03523AA850545EFD03B
:10290000FFACB7356E01814801489306200A1306D3
:10291000400A1307300A8147938505600945EFE0B7
:10292000FF9313051002EFE0DF8713056003EFE06C
:102930005F878545930780060A852300F100EFE055
:10294000DF8A7D5701452394018A2395E18AEFE0D0
:102950005FBFEFF08FE80145EFF06FC701450564F9
:10296000EFF00FCC7D5913040496814485491D4A2C
:10297000856A1305C009EF00007105099377F90115
:1029800089E7EFF06FADEFF0FF827D1401EC1305E6
:10299000900AEFE00FBE63043501EFF08FF9138466
:1029A0000A96C1BF1305100AEFE0AFBC63163501EC
:1029B0008504E3509AFCD5B7CDDCEFF01FCD814400
:1029C0004DBFB71702409843B70600F99386F6F556
:1029D0001367170098C3D84313670705D8C3D843B4
:1029E000758FD8C3372702401443F19A14C3144398
:1029F00093E6260014C3D8431377F7F0D8C3D8431F
:102A0000D8C38280B7160240DC42918313F7F700E7
:102A1000B707002093870700BA9783C70700D442FF
:102A20003777DC0293F7F70F130707C093F6060812
:102A30003356F70099E23356F70223A8C18082800B
:102A400001A001A001A001A001A001A001A001A07E
:102A500001A001A001A001A001A001A001A001A06E
:102A600001A001A001A001A001A001A001A001A05E
:102A700001A001A001A001A001A001A001A001A04E
:102A800001A001A001A001A001A001A001A001A03E
:102A900001A001A001A001A001A097E1FF1F938167
:102AA00061DD172100201301E155173500001305E2
:102AB000251297D5FF1F9385E5541386018363FA8A
:102AC000C5008322050023A0550011059105E3EA06
:102AD000C5FE138501839385812C6377B500232080
:102AE00005001105E36DB5FEFD42739002BC8D42F9
:102AF000739042809302800873A0023097D2FFFF48
:102B00009382825093E2320073905230EFF07FEB69
:102B100097020000938222D2739012347300203007
:102B2000B727014093870740631EF500EFD24FE0BF
:102B3000854513050020A52E814513050020852E0F
:102B40006FD04FE182805C413707F1E01307F7EF68
:102B5000944D7D8F9C41D58FD44DD58FD441A20605
:102B6000D58FD98F5CC11C4537F7F1FF1307D77F8D
:102B7000D4457D8F9C49D58F94458606D58FD98FB6
:102B80001CC55C55370710FF7D177D8F83C7450136
:102B9000FD1793F7F70FD207D98F5CD582801C45BC
:102BA00089C593E717001CC58280F99BEDBF1C45C2
:102BB00091C537075000D98F1CC582803707B0FFF9
:102BC0007D17F98FD5BFA54763F7B7048D471387E6
:102BD00065FF3307F7020328C5009D47B397E70059
:102BE00093C7F7FFB3F70701B396E600DD8E54C530
:102BF000994763E3C70495477D163306F602585993
:102C0000FD47B397C70093C7F7FFF98F3396C50009
:102C10005D8E50D982800D473387E5020328050178
:102C20009D47B397E70093C7F7FFB3F70701B39644
:102C3000E600DD8E14C96DBFB14763E2C702954758
:102C400065163306F6021859FD47B397C70093C7B8
:102C5000F7FFF98F3396C5005D8E10D982809547B6
:102C60004D163306F6025855FD47B397C70093C774
:102C7000F7FFF98FB395C500DD8D4CD5828068458F
:102C80004205418182803C4993F707E0DD8D2CC9E4
:102C900082809845937707011378F70081C7DC415C
:102CA0003368F8009441814713F6F60F39C21C418E
:102CB0000146854E3D4F930F800293028004214EC2
:102CC000B398CE00B3F516016391B8021313260032
:102CD000B3156F0093C5F5FFED8F33136800B3672D
:102CE000F3006317F70D232A15010506E31AC6FD45
:102CF0001CC14166130606F0758E3DC237160140B1
:102D000093050680631BB50A83A74181A145854EC3
:102D10003D4F930F800293028004414E3393BE00D7
:102D200033F666006312C302139625000116B3182A
:102D3000CF0093C8F8FFB3F7F8003316C800D18F5F
:102D40006319F709232A65008505E399C5FD371640
:102D500001405CC1930506806312B50823AAF18087
:102D6000C16763E6F604504D8147054E3D4F930F12
:102D7000800293028004A14E93850701B315BE0023
:102D8000B3F8B600639115039398270033131F011E
:102D90001343F3FF3376C300B318180133E6C800BA
:102DA000631AF7054CC98507E398D7FD50CD82809B
:102DB000E31D57F2232815010DBF930506C06315C7
:102DC000B50083A7818199B7E312C5F483A7C181B8
:102DD00035BFE31B57F623286500BDB7930506C032
:102DE0006315B50023ACF180A5BFE31BC5F623AE88
:102DF000F180BDB7E31957FAB315FE000CD165B7E2
:102E000023A6A18A8280377700401C4393F7F7F905
:102E10005D8D08C38280B7770040DC437D8D3335FC
:102E2000A0008280EFD2CFB009248545370500107D
:102E3000852013050006EFF01FFD2945112C1145D3
:102E4000EFF07FFD2A840145EFF0FFFB3335800072
:102E50006FD04FB099C5371702405C4B5D8D48CBA2
:102E60008280B7170240D84B1345F5FF798DC8CB48
:102E7000828099C5371702401C4F5D8D08CF828034
:102E8000B7170240984F1345F5FF798D88CF8280A0
:102E900099C5371702405C4F5D8D48CF8280B717C8
:102EA0000240D84F1345F5FF798DC8CF828099C570
:102EB000371702405C475D8D48C78280B7170240D4
:102EC000D8471345F5FF798DC8C782808357050021
:102ED00037370140130707C0C207C1836306E50007
:102EE000370700406317E50003D7250093F7F7F88D
:102EF000D98F03D7650093F7F7CFC207C183D98F66
:102F00002310F50083D745002316F50283D705006B
:102F10002314F502B7370140938707C06306F50015
:102F2000B70700406316F50083C785002318F50234
:102F30008547231AF50082808357050203D60500D2
:102F400003D82500C207C183F99BC207C1832310A0
:102F5000F502835705028356450003578501C207D2
:102F6000C183420741831377C7F8518F03D6850089
:102F7000F59BC20633660601D18F37360140130632
:102F800006C0C1826306C500370600406313C50250
:102F900003D6A500DD9B03D8E500D18F03D64500FD
:102FA000ED9B93F6F6CFD18F03D6C50033660601AD
:102FB000D18E2312D500231CE50003D76500231A08
:102FC000E5022310F50282808357050091C593E73F
:102FD00017002310F5008280C207C183F99BC20746
:102FE000C183C5BF8357450491C52167D98F23127B
:102FF000F5048280C607C583DDBF8357050091C5F0
:1030000093E707082310F5008280C207C18393F776
:10301000F7F7C207C183FDB783578501C207C18394
:10302000DD9BDD8D231CB500828083A701813717CE
:103030007A0013070720B3D7E70293F7F70F238926
:10304000F18A1307803EB387E7022398F18A8280D2
:10305000B7F700E0D8438146799BD8C303C7218BDB
:103060003306A70290CBD4CB98431367070198C3CC
:1030700098431367170298C3D843058B75DF9843AD
:10308000799B98C38280B7F700E0D8438146799B4B
:10309000D8C303D7018B3306A70290CBD4CB984378
:1030A0001367070198C398431367170298C3D8435F
:1030B000058B75DF9843799B98C3828013870182C3
:1030C0001C439386812C3E95636BD500B756002038
:1030D0009386068063E5A60008C33E858280FD577F
:1030E000EDBFB3C7A5008D8B3307C50081E78D47C2
:1030F00063EEC700AA876370E50A83C605008507EB
:103100008505A38FD7FEE3EAE7FE8280937635003C
:10311000AA8791CA83C6050085078505A38FD7FEB8
:1031200093F63700FDB79376C7FF138606FE63F06C
:10313000C70683A3050083A2450083AF850003AFC4
:10314000C50083AE050103AE450103A3850183A835
:10315000C5019385450223A0770003A8C5FF23A2DC
:10316000570023A4F70123A6E70123A8D70123AA28
:10317000C70123AC670023AE17019387470223AE34
:1031800007FF75B790419107910523AEC7FEE3EBAA
:10319000D7FEE3E4E7F6828035713ECBB7070080C7
:1031A00093C7F7FF3ECE3EC8C1779387872032C5CD
:1031B00036C73AC942CD46CF3ECA938741822AC418
:1031C0002ACC884334012E862C0086DE36C2C522E6
:1031D000A24723800700F6500D618280AA878507E9
:1031E00003C7F7FF6DFF3385A7407D15828001116E
:1031F00026CA93843500F19806CE22CC4AC84EC622
:10320000A104B14763F5F404B14463E4B4042A892A
:10321000EF00D0059387418B98433A8429E4938744
:10322000818B9C4399E781454A85EF00407B23AC25
:10323000A18AA6854A85EF00807AFD596319350772
:10324000B1472320F9004A85EF00700229A0E3DE90
:1032500004FAB1471CC10145F2406244D2444249DC
:10326000B249056182801C40858F63CF0702AD465D
:1032700063F6F6001CC03E9404C031A05C406313AA
:10328000870223AAF18A4A85EF00607E1305B40005
:103290009307440061993307F5405DDF3A94898FC5
:1032A0001CC05DBF5CC3C5B72287404085BF130407
:1032B00035007198E30285FCB305A4404A850527D3
:1032C000E31C35FBB5BF01114AC803A9850022CC18
:1032D00052C45AC006CE26CA4EC656C22E84328B5F
:1032E000368A63EE260983D7C50013F7074851C70E
:1032F00004408C495848AA8AB389B4408D44B384A9
:10330000E4020947B3C4E402138716004E9763F33F
:10331000E400BA8493F70740D1C3A6855685EFF041
:103320001FED2A890DE5B14723A0FA008357C40099
:103330007D5593E707042316F400F2406244D2441B
:103340004249B249224A924A024B056182800C48A6
:103350004E86EFF01FD98357C40093F7F7B793E772
:1033600007082316F4002328240144C84E99B38487
:1033700034412320240104C4528963732A015289F1
:1033800008404A86DA85712D1C440145B3872741E0
:103390001CC41C403E992320240145B7268656852F
:1033A000A52F2A8969F10C485685D925ADBF83D749
:1033B000C500717126D34AD14ECF06D722D552CD42
:1033C00056CB5AC95EC762C566C393F70708AA8978
:1033D0002E89B284B9C39C49A9E39305000436C67B
:1033E000EFF0FFE02320A9002328A900B24615E151
:1033F000B14723A0F9007D55BA502A549A540A596E
:10340000FA496A4ADA4A4A4BBA4B2A4C9A4C4D61FD
:10341000828093070004232AF90093070002A30C7B
:10342000F1029307000302DA230DF10236CE930B6B
:103430005002972A0000938AEA75054C294B26848E
:103440008347040099C3639C7709B30C9440638E4F
:103450000C00E6862686CA854E85EFF0DFE6FD572E
:103460006301F51AD256E69636DA83470400638A7A
:103470000718FD579304140002D002D63ED202D49E
:10348000A301010682DC83C5040015465685AD2BD9
:1034900013841400825731E513F7070109C7130796
:1034A0000002A301E10613F7870009C71307B00262
:1034B000A301E10683C604001307A002638BE602A2
:1034C000B25726848146254603470400930514001D
:1034D000130707FD6374E6068DC63ED61DA00504DE
:1034E00085B7330555413315AC00C98F3ED0A28452
:1034F00059BF724793064700184336CE6349070207
:103500003AD6034704009307E002631FF70403471A
:1035100014009307A002631BF702F2470904138704
:1035200047009C433ACE63C107023ED235A8330719
:10353000E04093E727003AD63ED0E1B7B387670370
:1035400085462E84BA9749B7FD57C5B7050402D200
:10355000814681472546034704009305140013075D
:1035600007FD6376E606F1F2834504000D46172554
:1035700000001305A562492911CD97270000938704
:10358000E7611D8D93070004B397A700025505045A
:103590005D8D2AD0834504001946172500001305C8
:1035A000256093041400230CB102B92925C597D7CF
:1035B000FFFF938727A595E70257F2471377071078
:1035C00009CF91073ECED257D2973EDA8DBDB38751
:1035D000670385462E84BA97BDBF9D07E19BA1076F
:1035E000D5B7780897060000938626CE4A860C1039
:1035F0004E8597000000E7000000FD572A8AE3147B
:10360000F5FC8357C9007D5593F70704E39607DE61
:103610005255DDB3780897060000938606CB4A869C
:103620000C104E85012AD1BF797156CA9C49BA8ABD
:10363000984522D426D24ECE52CC06D64AD05AC86D
:103640005EC6AA892E84B284368A63D3E700BA871D
:103650009CC00347340419C385079CC01C4093F7E2
:10366000070281C79C4089079CC003290400137985
:103670006900631A0900130B9401FD5B5C449840D8
:10368000998F634CF9041C408346340493F7070276
:10369000B336D000A5EB13063404D2854E85829A4A
:1036A000FD576303F5041C4011469840998B544420
:1036B00081446397C700B384E64063D30400814428
:1036C0001C4418486354F700998FBE94014969045B
:1036D0007D5B63982405014509A885465A86D285F5
:1036E0004E85829A631E75017D55B25022549254C4
:1036F0000259F249624AD24A424BB24B456182803A
:103700000509ADBF3307D40013060003A301C704A6
:103710000347540493871600A2978906A381E70400
:103720009DBF85462286D2854E85829AE30E65FB33
:10373000050945B7797122D426D24AD04ECE06D695
:1037400052CC56CA5AC8B68983C6850193079006DB
:103750003289AA842E8413863504638DF60263E2CF
:10376000D706930780056388F61863EDD700638159
:10377000062293073004638EF60A930A2404230179
:10378000D404C9A0930730066385F60A9307400660
:10379000E395F6FE1C40084393F6070893054500A1
:1037A000C5C61C410CC363D807001307D002B3077A
:1037B000F040A301E404972600009386E63E2947E3
:1037C0006DA8930700076384F61663E5D702930795
:1037D000E006638BF6189307F006E390F6FA0C40C8
:1037E0001C4313F80508138547006307080608C340
:1037F0009C438DA893075007E383F6FE9307800749
:10380000638BF61293073007E399F6F61C43D04119
:1038100081459386470014C383AA07005685ED228D
:1038200001C53305554148C05C401CC8A3010404D0
:1038300071A81C43930A2404938647009C4314C335
:103840002301F4048547D5B793F607041C410CC344
:10385000B9DAC207C18781BF93F5050408C3C9D986
:1038600083D707001307F0066388E60E972600004B
:10387000938686332947A30104044C400CC463C5D6
:10388000050008406D9908C099E3B28A91CDB28ACB
:10389000B3F5E702FD1AB69583C505002380BA008B
:1038A000B3D5E70263F0E70CA147631EF7001C40A5
:1038B000858B91CB58401C4863C7E70093070003F2
:1038C000A38FFAFEFD1A3306564110C84E87CA86EA
:1038D0007000A2852685EFF03FD57D5A631E450B0B
:1038E0007D55B250225492540259F249624AD24A4A
:1038F000424B45618280A382D504972600009386BF
:10390000A62A0C40084313F805081C411105630D55
:10391000080208C313F7150001C793E505020CC0A0
:103920004147B1FB0C4093F5F5FD0CC0A9B79C4194
:1039300093E707029CC193078007A302F40497262C
:1039400000009386A62775BF13F8050408C3E30398
:1039500008FCC207C1837DBF972600009386C6245A
:10396000214711BFAE872DB794411C43CC4913F8B2
:103970000608138547006306080008C39C438CC3F0
:1039800001A808C393F606049C43F5DA2390B70018
:1039900023280400B28A1DBF14485686CA8526858E
:1039A0008299E30F45F31C40898B8DE7B247484469
:1039B000E359F5F23E8535B785465686CA85268594
:1039C0008299E30F65F1050A5C443247998FE3451C
:1039D000FAFEE9BF014A930A94017D5BF5B74111F4
:1039E00022C42A842E8523A2012C06C6EFF00FEDF7
:1039F000FD576317F5009387412C9C4391C31CC06E
:103A0000B24022444101828093F5F50F2A96631457
:103A1000C5000145828083470500E38DB7FE05059B
:103A2000FDB763F3A504B386C500637FD502934554
:103A3000F6FF8147FD176393F50082803387F60018
:103A4000034807003387C7002A9723000701DDB723
:103A50003387F500834607003307F5008507230009
:103A6000D700E317F6FE82808147E5BF828082801F
:103A7000DDC183A7C5FF411122C406C626C2138437
:103A8000C5FF63D307003E94AA84EFF03FFE9387FF
:103A9000418B9C4381EF2322040023AA818A224484
:103AA000B2402685924441016FF07FFC637EF400B2
:103AB00014403307D4006396E7009843DC433697FD
:103AC00018C05CC0D9BFBA87D84319C3E37DE4FEF0
:103AD00094433386D700631F86001040B29694C388
:103AE0003386D700E31DC7FA10435843B29694C3F8
:103AF000D8C375B76375C400B1479CC04DB71040BB
:103B0000B306C4006316D70014435843B29614C0DA
:103B100058C0C0C369B7828081E5B2856FF02FEDD0
:103B2000011122CC06CE26CA4AC84EC6328401EE06
:103B3000EFF01FF40149F24062444A85D244424901
:103B4000B24905618280AE84AA891D202689E3746A
:103B500085FEA2854E85EFF08FE92A8969DDA6856D
:103B60002286EFF00FD8A6854E85EFF07FF0E1B703
:103B700083A7C5FF1385C7FF63D50700AA959C419E
:103B80003E958280E007E067E0FF40FEC0FB00F862
:103B9000FFFF000094520000A0520000AC52000051
:103BA000B85200000E0B0000060A00009208000048
:103BB000700A0000920800008E090000E60800006C
:103BC00092080000DA090000F2090000080B00006A
:103BD0009A090000AC1300000C140000BC13000094
:103BE000EC130000FC130000D8120000D8120000F3
:103BF0000C140000D81200000C140000DC130000AC
:103C0000CC130000103C0000D4420000207E2100B4
:103C10000077777777777007FF70E7636363636395
:103C20000E6063033819C0CC3FFDFFE39818C0CE87
:103C30003FFDFFE1981CC0E60630338008040F8F7B
:103C4000FFF74BA1D0781F03C170BC5FFFFE7E045D
:103C500002007830FC30EC70CC60CCE0CEC0CCDE22
:103C6000CDFEEDB7FFB37B730373077306330E37D7
:103C70000C3E1C1C1E01FC1FE0E707383DC0FC0386
:103C8000C07E33F3B9DDCFEE3E70F3FF8FFE3E70A2
:103C9000E666661CE39C71CE38E38E38E38E1C71B9
:103CA000C38E1CE1C70E38E1C71C71C71C71CE382A
:103CB000E71CE01C0E071F7FF9F8F8EC7711001CD9
:103CC0000E07038FFFFC70381C0E07007FEEECFF21
:103CD000FFC07FF701C0E0381C0701C0E0380E07C5
:103CE00001C0E0380E0701C0E0003E3F9FDEFE3F0E
:103CF0001F8FC7E3F1F8FC7E3FBDFCFE3E000E3C8B
:103D0000FBFEEDC3870E1C3870E1C3870E3C3FBF3E
:103D1000CCE0783C1C0E0F070707078383FFFFFFEB
:103D2000803E7FBFC8F078381C7C3E1F81E0703C2D
:103D30003FFDFEFC000780F03E07C1F83F06E1DCD6
:103D4000338E718E7FFFFFFFC0E01C03807F3F9F9B
:103D5000CE060703F9FE7F83C0E0703C3FFDFE7C8A
:103D6000000F1F9FCE0E0703B9FEFFFBF8FC7E3F3E
:103D7000BDFCFE3E00FFFFFFE07070381C1C0E070C
:103D8000070381C1E0E07078003E3FBFFC7E3F1D2D
:103D9000DCFE3E3FBDFC7E3F1FFEFE3E003C3FBFC3
:103DA000DCFE3F1F8FCFFFBFCEE0707079FCFC7848
:103DB000007FF7000007FF707FF70000007FEEEC48
:103DC0000000C1E1E3C7C381F03C0781E03000FFA0
:103DD000FFC0000007FFFE00603C0F01E07C0E1FEB
:103DE0001E3C3C1800003EFF7F470707070E1C18CB
:103DF000180000383C3C3807E03FF0F0F1C0E73EE7
:103E0000ECFDFB99E733CCE799CF339E777CFFDC61
:103E1000E7180038003C303FE03F800F807C0360B3
:103E20003B81DC0EE077071C38E1C70FF8FFE7FFA6
:103E30003839C1DE0FE038FF3FEFFF8FE1F87E3BFE
:103E4000FEFF3FEE3F87E1F8FFFFFEFF000F0FE7A9
:103E5000F9E2F03C0E0380E0380E03C0F01E27F8B4
:103E6000FE0F00FE1FF3FF79EF1FE3FC3F87F0FE1C
:103E70001FC3F8FF1FE7BFF7FCFE00FFFFFFF0F0D6
:103E8000F0F0FFFFFFF0F0F0F0FFFFFFFFFFFF0E8D
:103E90001C387FFFFF870E1C3870E00FC3FCFF3C0F
:103EA0002701E0380700E3FC7F8FF87F0EF1DFF990
:103EB000FF0FC0E1F87E1F87E1F87E1FFFFFFFFEC6
:103EC0001F87E1F87E1F87E1C0FFFFFFFFFFFFE0D4
:103ED0001E3C78F1E3C78F1E3C78F1E3C78F1E3C90
:103EE00077EF9E00F1FE3BCF79CF79EE3FC7F0FF31
:103EF0001FE3DC79CF39E7BC778EF1E0E1C3870EB1
:103F00001C3870E1C3870E1C3FFFFEF83FF07FE0D6
:103F1000FEC1FD87FB8FF71FE637CC6F9DDF3BBEF1
:103F2000767C6CF8F9F1F3E3E7C38EF07E0FC1FC09
:103F30003F87B8F71E73CE79CF1DE3BC3F87F07E75
:103F40000FC1E00F03FC7FE79EF0FF0FE07E07E06C
:103F50007E07E07F0FF0F79E7FE3FC0F00FE7FBF40
:103F6000FCFE3F1F8FCFFFFFBF1C0E070381C0E089
:103F7000000F03FC7FE79EF0FF0FE07E07E07E0767
:103F8000E07F0FF0F79E7FE3FC0F803C01E00E0026
:103F9000F0FC3FCFF39EE3B8EE7B9EFF3F8FE3B88C
:103FA000E739CE7B8EE3C03E7FFFF0E0E0F0783E65
:103FB0001F0F070787FFFE7CFFFFFFFC781E0781AE
:103FC000E0781E0781E0781E0781E0781E00F1FE90
:103FD0003FC7F8FF1FE3FC7F8FF1FE3FC7F8FF1CD0
:103FE000E39FF1FC1F00E07F0F70E70E70E70E39D2
:103FF000C39C39C39C39C1F81F81F81F80F00F00A2
:10400000E0E0FE1C3DC7C738F8E71B1CE3639C6C6F
:1040100071DDDC3BBB877770EEEE1D8DC3B1B8362A
:104020003607C7C0F8F81E0F00F1EE39C71DC3B838
:104030003E07C0780E03E07C1DC3B8F71C738EE109
:10404000E0F1EE39C738E3B8770EE0F81F01C03869
:104050000700E01C0380700E007F9FE7F81E070139
:10406000C0E0381E0703C0E0781C07FFFFFFC0FF59
:10407000F9CE739CE739CE739CE739FF80E01C07CB
:1040800000E0380E01C0701E0380E01C0701C0383C
:104090000E01C0FFCE739CE739CE739CE739CFFF8A
:1040A0008006003803C01F01D80CE0E3061C7073C3
:1040B00003B80EFFFFF38E303E7F9FE8F039FFFF1D
:1040C000C7E3F3FFFF7738E0380E0380E039CEFB1B
:1040D000FEF3FC7E1F87E1FC7F3FFEFFBBC03E7E00
:1040E0007EF0E0E0E0E0E0F07E7E3E01C0701C0784
:1040F00001CE77DFFFF3F8FE3F87E3F8FF3DFF7F58
:10410000CF701E3F9FFE7E3FFFFFFFE0781FEFF165
:10411000F01F3F3E38387EFEFE38383838383838A1
:104120003838381FE7FDCE38E71CE39CE1FC3E063B
:1041300001FE1FE7FEE1F83F06F1CFF0FC00E0389A
:104140000E0380E039CEFBFFF3FC7F1F87E1F87E92
:104150001F87E1F8706F600FFFFFFFFFFFFF18F18F
:104160008000F3CF3CF3CF3CF3CF3CF3CF3FEFBC29
:10417000E0380E0380E038EE7B9CEF3B8EE3F8FEE8
:104180003DCE738EE3B8E0FFFFFFFFFFFFFFFFFFB1
:10419000E71E77DFBFFFFE7CFF1C3F8E1F870FC32C
:1041A00087E1C3F0E1F870FC387E1C38E73BEFFF95
:1041B000CFF1F87E1F87E1F87E1F87E1C01E1FE761
:1041C000FBCFE1F87E1F87E1FCF7F9FE1E00E73B1D
:1041D000EFFBCFF1F87E1F87F1FCFFFBBEEF380E3F
:1041E0000380E0380E0039DF77FFCFE3F8FE1F8F42
:1041F000E3FCF7FDF739C0701C0701C0701CEFDF4E
:10420000FF8F1C3870E1C3870E003DFFFF0E1F1F9C
:104210000F0F1FFFFF801870E3FFFFCE1C3870E107
:10422000C387CF8FE1F87E1F87E1F87E1F8FE3FC05
:10423000FFFDF739C0E0FE3DC738E71C778EE1DCB3
:104240003B83607C0F81F0E3E3B9F39CD9CE6CE74C
:1042500036739B39DDDC7EFC3F7E1F1F0F8F87C7C7
:10426000C1E3C0739CE3B0FC1E0781E0783F0FC739
:1042700039CEF3C0E0FE3DC738E71C778EE1DC1B8A
:1042800083E07C0F80F01C0380F0FC1F83C0007F64
:104290003F9FC0E0E0F0707838381FFFFFF80787D5
:1042A000C7E381C0E070381C7E3C1F81C0E07038DD
:1042B0001C0E03C1F078FFFFFFFFFFFFF07C3F0300
:1042C00081C0E070381C0FC1E3F1C0E070381C0EF3
:1042D0001F1F0F00000001010700FF000100041173
:1042E0000801EF000A0008060C01EF0010000D1194
:1042F0000E00EF002C0009130C01EE00420010111B
:104300001301EF0064000D110F01EF00800004069F
:104310000701EF00830006150901EF009300061561
:104320000901EF00A300090A0C01EE00AF00090B20
:104330000C01F200BC0004060701FD00BF000603EB
:104340000901F800C20004040701FC00C4000A11BE
:104350000B00EF00DA0009110C01EF00EE0007116D
:104360000C01EF00FD0009110C01EF001101091112
:104370000C01EF0025010B110C00EF003D010911AC
:104380000C01EF00510109110C01EF006501091149
:104390000C01EF00790109110C01EF008D010911E9
:1043A0000C01EF00A101040D0701F300A8010410A6
:1043B0000701F300B001090D0C01F100BF0109076D
:1043C0000C01F400C701090D0C01F100D601081120
:1043D0000A00EF00E7010F131201EF000B020D11AD
:1043E0000E00EF0027020A110D01EF003D020A1135
:1043F0000C01EF0053020B110E01EF006B020811CC
:104400000B01EF007C0207110B02EF008B020B1176
:104410000E01EF00A3020A110F02EF00B90203110F
:104420000802EF00C002071607FEEF00D4020B11CE
:104430000D01EF00EC0207110B02EF00FB020F1160
:104440001402EF001B030B111002EF0033030C11D9
:104450000F01EF004D0309110D02EF0061030C1570
:104460000F01EF0081030A110D02EF0097030811FD
:104470000B01EF00A8030A110B00EF00BE030B11A4
:104480000E01EF00D6030C110D00EF00F003131125
:104490001400EF0019040B110C00EF0031040B1194
:1044A0000C00EF0049040A110B00EF005F04051532
:1044B0000902EF006D040A110B00EF0083040515DB
:1044C0000901EF0091040D0B0E00EF00A304080298
:1044D00009000200A50405040E04ED00A804090D5E
:1044E0000C01F300B7040A120D01EE00CE04080D12
:1044F0000A01F300DB040A120D01EE00F204090DBB
:104500000C01F300010508120800EE0013050B135F
:104510000C00F3002E050A120D01EE0045050412F1
:104520000701EE004E05061807FFEE0060050A12AF
:104530000C01EE00770504120701EE008005110D55
:104540001401F3009C050A0D0D01F300AD050A0DE1
:104550000D01F300BE050A130D01F300D6050A1381
:104560000D01F300EE05070D0901F300FA05070D33
:104570000A01F300060607100900F00014060A0DF0
:104580000D01F30025060B0D0C00F3003706110D8D
:104590001200F30053060A0D0B00F30064060B1320
:1045A0000C00F3007F06090D0A00F3008E060915C2
:1045B0000A00EF00A60602180D05EE00AC0609156C
:1045C0000A00EF00506F776572696E67204F66666C
:1045D0000000000052656C656173652074686500B9
:1045E000627574746F6E207768656E0072656164C1
:1045F000792E2E2E0000000004460000D84B00004B
:10460000203A300000FEFEFEFEFEFEFE7E7E7E7E36
:104610007E7E7E7E7E7E7C7C7C0000003CFEFEFEFC
:10462000FE3CF1EF1EF1EF1EF1EF1EF1EF1EF1CE99
:104630001CE1C000F1E001E3C003C780078F001E4A
:104640003C003C780078F000F1E03FFFFC7FFFF891
:10465000FFFFF1FFFFE03C780078F000F1E001E3BC
:10466000C0078701FFFFF3FFFFE7FFFFCFFFFF80DA
:10467000F1E001C3C0078F000F1E001E3C003C7814
:104680000078F001E1E00000700007000070000712
:104690000003FC00FFF01FFF83FFFC7FFFC7F0FE5D
:1046A0007E0FE7E07E7E07E7E0007F0007F8003F2F
:1046B000F001FFC00FFE003FF800FFC003FC000F39
:1046C000E000FEFC07EFC07EFE0FEFF0FE7FFFE78D
:1046D000FFFC3FFF80FFF003FC000E0000E0000E37
:1046E0000000E0001F800007FC0001FF80007FF851
:1046F000100F8F0781E1E0F03C3C3C07878F00F80A
:10470000F1E01FFE7801FFCF001FF3C001F8F000B9
:10471000001E000007800001F000003C7C000F3FFD
:10472000E001EFFE0079FFE01E7C7C03CF8780F183
:10473000F0F03E3E1E0787C7C1E07FF80C0FFE0079
:1047400000FF800007C001FC0000FF8000FFF000B8
:104750003FFE001FFFC007E3F001F07C007C1F005C
:104760001F07C007E3E001FFF8003FFC000FFE0059
:1047700001FF0000FF83F07FF0FC3FFE3F1FFF8F33
:1047800087E7F7E3F8FFF8FE1FFE3F83FF0FE0FF28
:10479000C3FC3FE07FFFF81FFFFF03FFFFE03FFD8B
:1047A000FC03F83F80F7BDEF7BDEF7BC00401E0343
:1047B000E07E07C0F81F01F03E03E03E07C07C0723
:1047C000C07C07C0FC0FC0FC0FC0FC0FC0FC0FC0BA
:1047D0007C07C07C07C07C03E03E03E01F01F00FB4
:1047E000807C07E03E01E004400F00F80FC07C032E
:1047F000E01F01F00F80F80FC07C07C07C07E07E4F
:1048000007E07E07E07E07E07E07E07E07E07E07A8
:10481000C07C07C0FC0F80F81F01F03E07E0FC0FD2
:1048200080F0040001E0003C00078000E0041C115F
:10483000E38F3FF7E7FFFC3FFE407C001FC007BC53
:1048400001F7C07C781F0F80E0E008080001F80045
:104850001F8001F8001F8001F8001F8001F80FFF82
:10486000FEFFFFEFFFFEFFFFEFFFFE01F8001F80DE
:1048700001F8001F8001F8001F8001F8001F803E32
:104880003E3E3E3E3E3E3E7C7CF8F830FFF7FFBFAA
:10489000FDFFEFFF003C3F3F9FE7E1E0003E003CB3
:1048A000007C007C007800F800F800F001F001F0D6
:1048B00001F001E003E003E003C007C007C0078088
:1048C0000F800F800F001F001F001E003E003E00E3
:1048D0003E003C007C007C00F80003F800FFE01F75
:1048E000FF03FFF87FFFC7F1FCFE0FEFE0FEFC07C0
:1048F000EFC07EFC07EFC07EFC07EFC07EFC07EF39
:10490000C07EFC07EFC07EFC07EFC07EFC07EFE037
:10491000FEFE0FE7F1FC7FFFC3FFF81FFF00FFE083
:1049200003F800001803E07F8FFEFFFBFFEFFFBFDF
:104930007EC1F807E01F807E01F807E01F807E013E
:10494000F807E01F807E01F807E01F807E01F8076E
:10495000E01F807E01F801FC003FF807FFF07FFFB9
:1049600083FFFE3F87F1F81FDFC0FEFE07F7F03F31
:104970008001FC001FC000FE000FE000FF000FF0F0
:1049800000FF000FF0007F0007F0007F0007F0003D
:104990007F8007F8007FFFF3FFFF9FFFFCFFFFE72B
:1049A000FFFF0003FC003FFC03FFFC0FFFF87FFF4D
:1049B000E1FC3FCFE07F0001FC0007F0001FC000DA
:1049C000FE007FF001FF8007FC001FFC007FF80065
:1049D0000FF0001FC0003F0000FC0003FBF80FCFEA
:1049E000E07F3FC3FC7FFFE1FFFF83FFFC03FFC0CD
:1049F00003FC00001FC0007F0003FC001FF0007FCD
:104A0000C003FF000FFC007FF003FFC00FFF007D1D
:104A1000FC01F7F00F9FC07E7F01F1FC0FC7F03E55
:104A20001FC1F87F0FFFFFBFFFFEFFFFFBFFFFEF80
:104A3000FFFF8007F0001FC0007F0001FC0007F0AF
:104A4000001FC01FFFE0FFFF0FFFF87FFFC3FFFE47
:104A50001F8000FC0007E0003F0001F8000FDF802E
:104A6000FFFF07FFFC3FFFF0FC3F8080FE0007F0E8
:104A7000001F8000FC0007EFE03F3F03F9FC1FCF61
:104A8000F1FE3FFFE1FFFE07FFF00FFE001FC00039
:104A9000003F0007F800FFC00FFE00FFF00FF80016
:104AA000FF000FF0007F0007F0003F9F81FBFF0F2A
:104AB000FFFC7FFFE3FFFF9FE3FCFC0FF7E03FBF3E
:104AC00001FDF80FEFC07F7E03FBF83F8FE3FC7F13
:104AD000FFE1FFFE07FFE01FFE001F8000FFFFFB5E
:104AE000FFFFEFFFFFBFFFFCFFFFF0001FC0007ED6
:104AF0000003F8000FC0003F0001FC0007E0003F8A
:104B00008000FC0007F0001FC000FE0003F8000F4B
:104B1000C0007F0001F8000FE0003F8001FC0007AB
:104B2000F0003F8000FE0003F8001FC00003F80102
:104B3000FFF03FFF87FFFC7FFFCFF1FEFE0FEFE0AE
:104B4000FEFE0FEFE0FE7F1FC3FFF81FFF00FFE038
:104B50003FFF87FFFC7F1FCFE0FEFC07EFC07EFC1E
:104B600007EFC07EFE0FEFF1FEFFFFE7FFFC3FFF08
:104B700081FFF003F80003F800FFE01FFF03FFF8D8
:104B80007FFFC7F1FCFE0FEFE0FEFC07EFC07EFCED
:104B900007EFC07EFC07EFE07EFF0FE7FFFE7FFF21
:104BA000E3FFFE1FF7E07CFE000FC001FC003F802A
:104BB0000FF80FFF00FFE00FF800FF000F80003C30
:104BC0003F3F9FE7E1E00000000000000000000020
:104BD000003C3F3F9FE7E1E0000001010B000000C7
:104BE0000100081D0C02E3001E000C0B0E01E20088
:104BF0002F00171D1800E300830014251802DF00A2
:104C0000E0001B1D1F02E30042011A1D1C01E3000E
:104C1000A101050B0701E200A8010C280F02E10029
:104C2000E4010C280F01E100200213111401E3003C
:104C3000490214141601E9007B02080D0C01FA0068
:104C400088020D051303F100910209060D02FA0016
:104C50009802101F0FFFE300D602141D1802E30094
:104C60001F030E1D1803E3005203151D1801E30076
:104C70009F03161D1801E300EF03161D1801E30042
:104C80003F04151D1801E3008C04151D1802E300F4
:104C9000D904161D1801E3002905141D1802E300AC
:104CA0007205141D1802E300BB0509160D02EA0087
:104CB0005375636365737321000000004661696C7E
:104CC0006564000043616C6962726174696E672E8D
:104CD0002E000000507265737320627574746F6EDD
:104CE00020746F2065786974000000004F7074694B
:104CF0006F6E204D656E7500507265737320746F12
:104D0000206368616E67650050726573732B686F0E
:104D10006C6420746F2073656C6563740000000020
:104D200025642C25642E25642C25640A0D000000C2
:104D3000434F320070706D00434833325830333384
:104D400000000000506F727461626C65000000002A
:104D5000434F322053656E736F720000E000000015
:104D6000CFFFFFFEDFFE3FFEDFFE3FFE9FFE3FFE6A
:104D70003FFFFFFE7FFE3FFE7FFC1FFE7FFC1FFE0E
:104D80007FFC1FFE3FFC1FFE9FFC1FFEDFFC1FFE83
:104D9000DFFE3FFECFFFFFFEE0000000E00000006E
:104DA000CFFFFFFEDFFFFFFEDC1041069C10410637
:104DB0003C1041067C1041067C1041067C104106E7
:104DC0007C1041063C1041069C104106DC10410657
:104DD000DFFFFFFECFFFFFFEE0000000E00000006D
:104DE000CFFFFFFEDFFFFFFEDFFFFF069FFFFF0697
:104DF0003FFFFF067FFFFF067FFFFF067FFFFF06E7
:104E00007FFFFF063FFFFF069FFFFF06DFFFFF0656
:104E1000DFFFFFFECFFFFFFEE0000000E00000002C
:104E2000CFFFFFFEDFFFFFFEDFFFC1069FFFC106D2
:104E30003FFFC1067FFFC1067FFFC1067FFFC1069E
:104E40007FFFC1063FFFC1069FFFC106DFFFC1060E
:104E5000DFFFFFFECFFFFFFEE0000000E0000000EC
:104E6000CFFFFFFEDFFFFFFEDFF041069FF04106B0
:104E70003FF041067FF041067FF041067FF041069A
:104E80007FF041063FF041069FF04106DFF041060A
:104E9000DFFFFFFECFFFFFFEE0000000E0000000AC
:104EA000CFFFFFFEDFFFFFFEDFF99FFE9FF99FFEB2
:104EB0003FF99FFE7FF99FFE7FF00FFE7FF00FFE10
:104EC0007FF00FFE3FF81FFE9FFE7FFEDFFE7FFE9E
:104ED000DFFE7FFECFFFFFFEE0000000FFFF83FF4D
:104EE000FF000000FFFF01FFFF000000FFFF38FF91
:104EF000FF000000FFFE3C7FFF000000FFFE7E7F02
:104F0000FF000000FFFE7C7FFF000000FFFE3CFF73
:104F1000FF000000FFFF00FFFF000000FFFF81FF18
:104F2000FF000000FFFFE7FFFF000000FFFFE7FFBB
:104F3000FF000000FFFFE7FFFF000000FFFFE7FFAB
:104F4000FF000000FFFFE7FFFF000000FFFFC3FFBF
:104F5000FF000000FFFC003FFF000000FFF0000F1B
:104F6000FF000000FFE00007FF000000FF800001DD
:104F7000FF000000FF000000FF000000FE00FF0037
:104F80007F000000FC03FFC03F000000F80FFFF0AF
:104F90001F000000F80FFFF01F000000F01FFFF8D7
:104FA0000F000000F03FFFFC0F000000F07CFF3E10
:104FB0000F000000F0FC7E3F07000000E0FC7E3F99
:104FC00007000000E0FC7E3F07000000E0FC7E3FA1
:104FD00007000000E0FCFF3F07000000E0FFFFFFCC
:104FE00007000000E07FFFFE07000000E03E01FC3C
:104FF00007000000E000000007000000E0000000E3
:1050000007000000E000000007000000E0000000D2
:1050100007000000E000000007000000E0000000C2
:1050200007000000E00F87E007000000E018C6302E
:1050300007000000E018663007000000E018663046
:1050400007000000E018C66007000000E01F87C0EE
:1050500007000000E01FC7F007000000E018C6309E
:1050600007000000E018661807000000E018661846
:1050700007000000E018661807000000E018C630BE
:1050800007000000E00F83E007000000E0000000E0
:1050900007000000E000000007000000E000000042
:1050A00007000000E000000007000000E000000032
:1050B00007000000E000000007000000FFFFFFFF06
:1050C000FF000000FFFFFFFFFF000000E000000006
:1050D00007000000E000000007000000E000000002
:1050E00007000000F00000000F000000FFC0FF03F9
:1050F000FF000000FFC0FF03FF000000FFC0FF0330
:10510000FF000000FFC0FF03FF000000FFC0FF031F
:10511000FF000000FFC0FF03FF000000FFC07F038F
:10512000FF000000FF803C00FF000000FE00380090
:10513000FF000000FE0010007F000000FE001000D5
:105140007F000000FE0010007F000000FE00100045
:10515000FF000000FF803800FF000000424D3601D4
:10516000000000000000920000007C000000200011
:105170000000290000000100010000000000A40060
:10518000000000000000000000000200000002001B
:1051900000000000FF0000FF0000FF000000000012
:1051A00000FF4247527380C2F52860B81E15208563
:1051B000EB01403333138066662640666606A0998D
:1051C00099093C0AD703245C8F32000000000000DC
:1051D00000000000000004000000000000000000CB
:1051E00000000000000003080400E6EAE700FFFFFB
:1051F000FFFFFFFFFFFFFFFE7FFFFFFC3FFFFFF80A
:105200001FFFFFF00FFFFFE007FFFFC003FFFF805E
:1052100001FFFF0000FFFF0000FFFE00007FFC0019
:105220000E3FF8F01E3FF9F81C1FF3FC3C0FF39CF7
:10523000380FE39C7807E39C7007E39CF007C39C5E
:10524000E003C3FCE003C1F9C003C0F1C783C0039E
:10525000CFC3C0039FE3C0079CE3C0071CE3C00F9C
:105260001CE3C00E1CE3E01E1CE7E01C1FE7F01C63
:105270000FCFF038078FF838001FFC00003FFE000A
:10528000007FFF8001FFFFE007FFFFFFFFFFFFFF41
:10529000FFFF000043616C69627261746500000089
:1052A0004C6F7720506F776572000000506F776504
:1052B00072204F666600000045786974204D656E67
:1052C00075000000424D3201000000000000920015
:1052D00000007C0000001A0000002800000001000F
:1052E000010000000000A00000000000000000001D
:1052F000000002000000020000000000FF0000FFAC
:105300000000FF000000000000FF4247527380C20F
:10531000F52860B81E152085EB01403333138066F5
:10532000662640666606A09999093C0AD703245C64
:105330008F320000000000000000000000000400A8
:10534000000000000000000000000000000000005D
:105350000000FFFFFF00FFFFFFC0FF8FFFC0FE0345
:10536000FFC0FC71FFC0FCF9FFC0FCF9C040FCF9B4
:10537000C040FCF9FFC0FCF9FFC0FCF9FFC0FCF91C
:10538000C040FCF9C040FCF9FFC0FCF9FFC0FCF9CB
:10539000C040FC89C040FC89FFC0FC89FFC0FC897B
:1053A000FFC0FC89E040FC89E040FC89FFC0F88830
:1053B000FFC0F38E7FC0E78F3FC0CE039FC0CC01FC
:1053C0009FC09C01CFC09800CFC09800CFC098006C
:1053D000CFC09800CFC09C01CFC0CC019FC0C603F6
:1053E0001FC0E38F3FC0F1FC7FC0F800FFC0FE0389
:1053F000FFC0FFFFFFC000005000500050008000C1
:1054000080008700AC00F000F000F0008000F000A9
:10541000A000A000A0008000A000F0004001F0006B
:105420001801400180004001000001010028000037
:105430001400010018181A000035220000000200B4
:10544000023A0502366811E009160920211B1319DA
:1054500017151E2B0405020E11E10B14081E221D48
:10546000181E1B1A242B0606020F0120012900001A
:10547000023A0502366011E009160920211B1319B2
:1054800017151E2B0405020E11E10B14081E221D18
:10549000181E1B1A242B0606020F012001290000EA
:1054A00001130121023660023A550337000006B2AB
:1054B0000C0C00333302B73502BB1A02C02C02C2F7
:1054C0000102C30B02C42002C60F03D0A4A10FE047
:1054D00000191E0A09153D44511203003F3F0FE118
:1054E00000181E0A09253F43523303003F3F01299C
:1054F00000000000023A0502366811E00916092092
:10550000211B131917151E2B0405020E11E10B1494
:10551000081E221D181E1B1A242B0606020F01202E
:1055200001290000023A0502366811E00916092037
:10553000211B131917151E2B0405020E11E10B1464
:10554000081E221D181E1B1A242B0606020F0121FD
:1055500001290000000000000000000000065F5F5D
:10556000060000070700070700147F7F147F7F14E1
:10557000242E2A6B6B3A12466630180C6662307A1B
:105580004F5D377A4800040703000000001C3E63AB
:105590004100000041633E1C0000082A3E1C3E2AD8
:1055A000080008083E3E0808000080E06000000097
:1055B0000808080808080000006060000060301853
:1055C0000C0603013E7F594D477F3E40427F7F409E
:1055D0004000627359496F6600226349497F360073
:1055E000181C16537F7F50276745457D39003C7E48
:1055F0004B49793000030371790F0700367F494921
:105600007F3600064F49693F1E00000000666600B5
:1056100000000080E6660000081C366341000000C0
:10562000141414141414004163361C0800000203FF
:10563000595D07023E7F415D5D5F0E7C7E13137EE8
:105640007C00417F7F49497F361C3E634141632294
:10565000417F7F41633E1C417F7F495D4163417FC4
:105660007F491D01031C3E63415133727F7F08084F
:105670007F7F0000417F7F410000307040417F3FCD
:1056800001417F7F081C7763417F7F414060707FCD
:105690007F0E1C0E7F7F7F7F060C187F7F1C3E6372
:1056A00041633E1C417F7F49090F061E3F21316146
:1056B0007F5E417F7F09197F66266F4D495973329E
:1056C00003417F7F4103007F7F40407F7F001F3F7A
:1056D00060603F1F003F7F6030607F3F63771C0842
:1056E0001C7763074F78784F0700476371594D6700
:1056F00073007F7F414100000103060C18306000F9
:1057000041417F7F0000080C0603060C0880808062
:105710008080808000000307040000207454543C03
:105720007840417F3F48487830387C44446C2800BA
:10573000307848493F7F40387C54545C1800487E9C
:105740007F4903060098BCA4A4F87C04417F7F082D
:10575000047C7800447D7D40000060E08084FD7D15
:1057600000417F7F10386C4400417F7F4000007C07
:105770007C18781C7C787C7804047C7800387C4425
:10578000447C380084FCF8A4243C18183C24A4F879
:10579000FC84447C784C040C18485C5474642400E9
:1057A00004043E7F4424003C7C40403C7C401C3C44
:1057B00060603C1C003C7C6030607C3C446C381079
:1057C000386C449CBCA0A0FC7C004C64745C4C64B1
:1057D0000008083E77414100000000777700004153
:1057E00041773E0808000203010302030170784C70
:1057F000464C787001130121023668023A5503378E
:10580000000006B20C0C00333302B73502BB1A029B
:10581000C02C02C20102C30B02C42002C60F03D077
:10582000A4A10FE000191E0A09153D4451120300FE
:105830003F3F0FE100181E0A09253F435233030082
:105840003F3F01290000000004EF03800204CF0065
:10585000C13005ED6403128104E885007806CB3978
:105860002C00340202F72003EA000002C02302C128
:105870001003C53E2802C7860236480120023A5569
:1058800003B1001804B608822702F20002260110B4
:10589000E00F312B0C0E084EF1370710030E0900F4
:1058A00010E1000E1403110731C148080F0C313606
:1058B0000F03B10010000000000000000000065FB0
:1058C00006000703000703247E247E24242B6A128B
:1058D0000063130864633649562050000703000034
:1058E000003E41000000413E0000083E1C3E08080A
:1058F000083E080800E0600000080808080800608A
:1059000060000020100804023E5149453E00427FDD
:105910004000625149494622494949361814127FCC
:10592000102F494949313C4A494930017109050361
:105930003649494936064949291E006C6C00000069
:10594000EC6C00000814224100242424242400418B
:1059500022140802015909063E415D551E7E1111AF
:10596000117E7F494949363E414141227F414141B3
:105970003E7F494949417F090909013E4149497A28
:105980007F0808087F00417F4100304040403F7F52
:10599000081422417F404040407F0204027F7F0282
:1059A00004087F3E4141413E7F090909063E4151BD
:1059B000215E7F09091966264949493201017F01A3
:1059C000013F4040403F1F2040201F3F403C403FA0
:1059D0006314081463070870080771494543000001
:1059E0007F41410002040810200041417F00040271
:1059F000010204808080808000030700002054544E
:105A000054787F4444443838444444283844444417
:105A10007F3854545408087E09090018A4A4A47CB3
:105A20007F0404780000007D40004080847D007F7A
:105A30001028440000007F40007C041804787C0497
:105A40000478003844444438FC44444438384444DE
:105A500044FC44784404080854545420043E44242C
:105A6000003C40207C001C2040201C3C6030603CFE
:105A70006C10106C009CA0603C006454544C0008F6
:105A80003E41410000007700000041413E08020114
:105A90000201003C2623263C09024300020100804B
:105AA0003209040000010202010005240010010572
:105AB00024010001042402020524060001070581D7
:105AC0000340000109040100020A0000000705026A
:105AD000024000000705830240000000120110018F
